:100000000C9436020C94D2100C94A7100C947C1013
:100010000C9451100C9426100C94FB0F0C94D00FE0
:100020000C94A50F0C9467020C9467020C94670261
:100030000C9467020C9467020C9467020C9467029C
:100040000C9467020C9467020C9467020C9467028C
:100050000C9467020C9467020C9467020C945B0F7B
:100060000C9467020C9427110C94FD100C946702F9
:100070000C9467020C9467020C9467020C9467025C
:100080000C9467020C9467020C9467020C9467024C
:100090000C9467020C9467020C9467020C9467023C
:1000A0000C9467020C9467020C9467020C9467022C
:1000B0000C9467020C9467020C9467020C9467021C
:1000C0000C9467020C9467020C9467020C9467020C
:1000D0000C9467020C9467020C9467020C946702FC
:1000E0000C9467020C941C040C9414030C945D1182
:1000F0000C94C20B0C9427030C94D7040C94540654
:100100000C94ED020C9410030C9475050C940C03E4
:100110000C9404090C942C030C9483050C94420A4F
:100120000C9441040C94C5080C94B3050C94770905
:100130000C945B170C949F090C9440090C94F00DDF
:100140000C94E7020C948B090C9430090C944A0926
:100150000C94F5020C94AE0A0C941E030C945D06EC
:100160000C947D040C9406030C94F1020C94390B4E
:100170000C9422030C9415170C94F9020C9491041E
:100180000C94A3050C943E0A0C94A6070C94C3058A
:100190000C94A4090C9495090C9402030C94C605C4
:1001A0000C9412090C940D090C94C9090C945E0965
:1001B0000C9428030C9426090C941C090C94240517
:1001C0000C9438090C946D090C9481090C940E0B55
:1001D0000C941A030C9493050C9454090C94FC028F
:1001E0000C949F040C946E0400407A10F35A00A003
:1001F000724E18090010A5D4E80000E876481700F0
:1002000000E40B54020000CA9A3B000000E1F5052F
:10021000000080969800000040420F000000A08679
:1002200001000000102700000000E80300000000AB
:100230006400000000000A0000000000010000004F
:1002400000002C76D888DC674F0823DFC1DFAE5969
:10025000E1B1B796E5E3E453C63AE651997696E8FC
:10026000E6C28426EB898C9B62ED407C6FFCEFBC80
:100270009C9F40F2BAA56FA5F490055A2AF75C93AB
:100280006B6CF9676DC11BFCE0E40D47FEF520E6E1
:10029000B500D0ED902E0300943577050080841EC4
:1002A000080000204E0A000000C80C333333330F1F
:1002B000986E12831141EF8D2114893BE65516CFBC
:1002C000FEE6DB18D1844B381BF77C1D901DA4BBC8
:1002D000E424203284725E228100C9F124ECA1E57D
:1002E0003D27202000436F6D6D616E647320617641
:1002F00061696C61626C65206172653A0076657255
:1003000073696F6E00636F6D6D616E64206E6F74E4
:1003100020666F756E6400223A20002200546F6FD1
:10032000206D616E7920617267756D656E747320E2
:10033000746F207061727365004F4B003E200000A7
:10034000002100240027002A002D00300033000186
:10035000010000040107010A010000220025002815
:10036000002B002E003100340002010000050108BE
:10037000010B01000020002300260029002C002F83
:100380000032000001000003010601090105050516
:1003900005070508080808020202020A0A080804FC
:1003A000040404010101010101010103030303032A
:1003B000030303040707070C0C0C0C0C0C0C0C02B9
:1003C00002020206060606060606060B0B0B0B0BC0
:1003D0000B0B0B01021020200808102040102040B9
:1003E00080020102010804020101020408102040F9
:1003F0008080402010080402018004020180402017
:10040000100804020108040201010204081020403F
:1004100080010204081020408000000A0B02090C31
:100420000D0E08070304010000000000000000009A
:1004300000000000000000000000000000000000BC
:100440000000000000121110000000000000000079
:100450000000000000000000000000000000003A62
:10046000200068656C7000005D11151711241FBE17
:10047000CFEFD1E2DEBFCDBF00E00CBF13E0A0E0C4
:10048000B2E0E6EBFDE300E00BBF02C007900D9287
:10049000A037B107D9F726E0A0E7B3E001C01D926D
:1004A000AE31B207E1F712E0C5E3D2E000E006C0EA
:1004B00021970109802FFE010E94701BC433D107D0
:1004C00080E00807A9F70E9464130C94C91E0C94DD
:1004D0000000CF92DF92EF92FF92CF93DF93EC0177
:1004E0006A017B01E889F98982E08083C11481EE89
:1004F000D806E104F104A1F060E079E08DE390E03A
:10050000A70196010E944E1B215031094109510952
:100510005695479537952795211580E1380798F02E
:10052000E889F989108260E874E88EE190E0A7011B
:1005300096010E944E1B21503109410951095695DF
:10054000479537952795EC85FD853083EE85FF85AA
:100550002083188EEC89FD8986E08083EA89FB89F7
:10056000808180618083EA89FB89808188608083C3
:10057000EA89FB89808180688083EA89FB898081A0
:100580008F7D8083DF91CF91FF90EF90DF90CF90B0
:1005900008958150823108F05AC0E82FF0E0882792
:1005A000EB52FD4F8F4F0C94701BF502F902E702DE
:1005B000ED02F1022703FC02020306030C03100301
:1005C00014031A031E032703220328032C0380911C
:1005D00080008F77809380000895809180008F7DC8
:1005E000F9CF80918000877FF5CF84B58F7784BD68
:1005F000089584B58F7DFBCF8091B0008F77809375
:10060000B00008958091B0008F7DF9CF8091900067
:100610008F77809390000895809190008F7DF9CF1F
:1006200080919000877FF5CF8091A0008F77809395
:10063000A00008958091A0008F7DF9CF8091A00047
:10064000877FF5CF809120018F77809320010895D7
:10065000809120018F7DF9CF80912001877FF5CF98
:10066000CF93DF93282F30E0F901E75EFB4F8491B1
:10067000F901ED52FC4FD491F901E357FC4FC491BD
:10068000CC23A1F081110E94C902EC2FF0E0EE0F03
:10069000FF1FED58FC4FA591B491EC91ED2381E043
:1006A00090E009F480E0DF91CF91089580E090E040
:1006B000FACF1F93CF93DF93282F30E0F901E75E45
:1006C000FB4F8491F901ED52FC4FD491F901E357AE
:1006D000FC4FC491CC23A9F0162F81110E94C902AE
:1006E000EC2FF0E0EE0FFF1FE75AFC4FA591B491FD
:1006F0008FB7F894EC91111108C0D095DE23DC93EC
:100700008FBFDF91CF911F910895DE2BF8CFCF934C
:10071000DF9390E0FC01ED52FC4F249183579C4FF6
:10072000FC0184918823D1F090E0880F991FFC018F
:10073000E15CFC4FA591B491FC01E75AFC4FC591D7
:10074000D491623071F49FB7F8943C91822F8095D8
:1007500083238C93E8812E2B28839FBFDF91CF9139
:1007600008958FB7F894EC912E2B2C938FBFF6CF72
:100770003FB7F8948091750390917603A091770329
:10078000B091780326B5A89B05C02F3F19F00196BC
:10079000A11DB11D3FBFBA2FA92F982F8827BC01DB
:1007A000CD01620F711D811D911D42E0660F771F03
:1007B000881F991F4A95D1F708958F929F92AF9203
:1007C000BF92CF92DF92EF92FF926B017C010E9469
:1007D000B8034B015C01C114D104E104F104B9F088
:1007E0000E94B803681979098A099B09683E734019
:1007F0008105910580F321E0C21AD108E108F108D2
:1008000088EE880E83E0981EA11CB11CE4CFFF90F7
:10081000EF90DF90CF90BF90AF909F908F90089512
:100820002FB7F894609171037091720380917303F4
:10083000909174032FBF08950895EF92FF920F9344
:100840001F93CF93DF938C017B01D0E0C0E0F701D1
:10085000EC0FFD1F6491662361F0D801ED91FC91CE
:100860000190F081E02DC8011995892B11F0219696
:10087000EECFCE01DF91CF911F910F91FF90EF90BE
:100880000895AF92BF92CF92DF92EF92FF920F93B3
:100890001F93CF93DF936C017B018B01040F151F16
:1008A000EB015E01AE18BF08C017D10759F069917E
:1008B000D601ED91FC910190F081E02DC6011995D2
:1008C000892B79F7C501DF91CF911F910F91FF908F
:1008D000EF90DF90CF90BF90AF900895FC01538DC3
:1008E000448D252F30E0842F90E0821B930B54170A
:1008F00010F0CF96089501970895FC01918D828D97
:10090000981761F0A28DAE0FBF2FB11D5D968C912F
:10091000928D9F5F9F73928F90E008958FEF9FEF6E
:100920000895FC01918D828D981731F0828DE80F2A
:10093000F11D858D90E008958FEF9FEF0895FC01E4
:10094000918D228D892F90E0805C9F4F821B9109B1
:100950008F739927089586E394E00E949F0421E015
:10096000892B09F420E0822F0895FC01A48DA80FA3
:10097000B92FB11DA35ABF4F2C91848D90E00196E1
:100980008F739927848FA689B7892C93A089B18901
:100990008C91837080648C93938D848D981306C0A2
:1009A0000288F389E02D80818F7D80830895EF9206
:1009B000FF920F931F93CF93DF93EC0181E0888F19
:1009C0009B8D8C8D98131AC0E889F989808185FFE9
:1009D00015C09FB7F894EE89FF896083E889F9898B
:1009E00080818370806480839FBF81E090E0DF918D
:1009F000CF911F910F91FF90EF900895F62E0B8DE0
:100A000010E00F5F1F4F0F731127E02E8C8D8E119A
:100A10000CC00FB607FCFACFE889F989808185FF01
:100A2000F5CFCE010E94B504F1CFEB8DEC0FFD2F79
:100A3000F11DE35AFF4FF0829FB7F8940B8FEA89BC
:100A4000FB8980818062CFCFCF93DF93EC01888DCB
:100A50008823B9F0AA89BB89E889F9898C9185FD39
:100A600003C0808186FD0DC00FB607FCF7CF8C91C7
:100A700085FFF2CF808185FFEDCFCE010E94B504C6
:100A8000E9CFDF91CF91089580E090E0892B29F0A4
:100A90000E94AB0481110E94000080E090E0892B4D
:100AA00049F080E090E0892B29F00E94000081113C
:100AB0000E94000080E090E0892B49F080E090E007
:100AC000892B29F00E94000081110E94000080E023
:100AD00090E0892B49F080E090E0892B29F00E947A
:100AE000000081110C9400000895DC011C968D918A
:100AF0009C91009739F0DC01ED91FC910680F78123
:100B0000E02D19940895DC011C968D919C9100971D
:100B100039F0DC01ED91FC910484F585E02D199408
:100B200090E080E00895DC011C968D919C910097E7
:100B300039F0DC01ED91FC910284F385E02D1994EC
:100B400090E080E00895DC011C968D919C910097C7
:100B500039F0DC01ED91FC910084F185E02D1994D0
:100B600090E080E00895DC011C968D919C910097A7
:100B700039F0DC01ED91FC910190F081E02D1994A8
:100B800090E080E0089590E080E008954F925F92B9
:100B90006F927F928F929F92AF92BF92CF92DF928D
:100BA000EF92FF920F931F93CF93DF938C01DC01A1
:100BB0005296CD90DC90512C85E6482E66246394A5
:100BC000712CF8018281581608F049C0C381D48184
:100BD000549CC00DD11D1124F4E05F9EC00111246E
:100BE000D6011996ED91FC91E80FF91F8080918054
:100BF000A280B3807E01BFE5EB0EF11CF7011182EC
:100C0000108232960190F081E02D0190F081E02D6C
:100C1000148A158A168A178A108E118E128E138ED8
:100C2000ED81FE8114821582168217820E941004C3
:100C3000FE01E55AFF4F6083718382839383D7015E
:100C40006D927C92CD59DF4FE881F9810190F0815E
:100C5000E02D848A958AA68AB78A5394B2CF0288F7
:100C6000F389E02DEC5AFF4F8081882341F01082F8
:100C70000E941004F8016387748785879687D801DE
:100C80001B968D919C91DF91CF911F910F91FF90B9
:100C9000EF90DF90CF90BF90AF909F908F907F901C
:100CA0006F905F904F900895FC01D9018C918283E1
:100CB00054834383738B628B0895CF92DF92EF92BC
:100CC000FF920F931F93CF93DF936A018B01D0E0C4
:100CD000C0E08B5A9F4F7C01D7018D919C91DC0124
:100CE000ED91FC910084F185E02D1995892BA1F0FF
:100CF000CC15DD0589F0F70180819181DC01ED9152
:100D0000FC910284F385E02D19958A3029F0219613
:100D1000F80181938F01E0CFCE01DF91CF911F9138
:100D20000F91FF90EF90DF90CF900895CF92DF92D8
:100D3000EF92FF926B017C0161E08DE00E948703DE
:100D400061E08DE00E945903C701B6010E94DD03F6
:100D500060E08DE00E945903C701B601FF90EF905B
:100D6000DF90CF900C94DD032F923F924F925F92D1
:100D70006F927F928F929F92AF92BF92CF92DF92AB
:100D8000EF92FF920F931F93CF93DF9300D000D089
:100D9000CDB7DEB72A013B01FC010190F081E02DC7
:100DA000FE83ED83C08CD18CE28CF38CA70196017D
:100DB00064897589868997890E94781B4B015C013B
:100DC000ED81FE812089318942895389C701B601AD
:100DD0000E94781BA30192010E94E51B9B01AC01BC
:100DE000505829833A834B835C83ED81FE81808A4E
:100DF000918AA28AB38A2481358146815781C501AF
:100E0000B4010E94901AA30192010E94901AED81F0
:100E1000FE8124853585468557850E94791B2B01E7
:100E20003C01ED81FE81448655866686778610A159
:100E300001A132A023A0212F302F432D522D0E943B
:100E4000861C18160CF06DC0812F902FA32DB22D8B
:100E5000ED81FE8184879587A687B787ED81FE8126
:100E60002081318142815381C501B4010E94901AD1
:100E7000ED81FE8124853585468557850E94791B45
:100E80004B015C01ED81FE812085318542855385D2
:100E900069817A818B819C810E94901A9B01AC01AF
:100EA000C501B4010E94791B6B017C019B01AC015F
:100EB000612F702F832D922D0E942A1A87FD14C056
:100EC000ED81FE81148D058D368C278C9601A7014E
:100ED000612F702F832D922D0E94861C181624F0EE
:100EE0001C2D0D2D3E2C2F2C612F702F832D922D1C
:100EF00026960FB6F894DEBF0FBECDBFDF91CF911F
:100F00001F910F91FF90EF90DF90CF90BF90AF9027
:100F10009F908F907F906F905F904F903F902F9019
:100F20000895ED81FE81C48CD58CE68CF78CA701E9
:100F30009601C301B2010E942A1A87FF8FCFED816B
:100F4000FE81C486D586E686F78688CF2F923F92AB
:100F50004F925F926F927F928F929F92AF92BF92C9
:100F6000CF92DF92EF92FF920F931F93CF93DF9375
:100F700000D000D0CDB7DEB79E838D831A82AD81BD
:100F8000BE8112968C91BA81B81708F0E5C0ED8148
:100F9000FE8103811481F5E6BF9F000D111D112410
:100FA0000E94100458012BE5A20EB11CD501CD9072
:100FB000DD90ED90FC906C197D098E099F09F80178
:100FC000C784D088E188F2886C157D058E059F0561
:100FD00008F4B6C00E942F1A20E030E04AE754E43B
:100FE0000E94E51B6B017C010E941004D5016D93EA
:100FF0007D938D939C931397D8011596ED91FC9159
:101000001697AF59BF4F2D903C90D1010D90BC91D8
:10101000A02DBC83AB8358964D905D906D907C90D5
:101020005B9764817581868197810E94311AF801EE
:1010300023853485458556850E94901AA301920127
:101040000E94781B4B015C01AC019B01C301B20102
:101050000E94791BAB81BC8158966D937D938D93D3
:101060009C935B972801B3E64B0E511CF201608004
:101070007180D3010D90BC91A02DBC83AB83A701DF
:101080009601C501B4010E94E51BEB81FC81608FD4
:10109000718F828F938FF801E15AFF4F8081918188
:1010A000892B61F4B701A601C1010E94B406D301E6
:1010B000ED91FC91648B758B868B978BB701A601A4
:1010C000F201808191810E94B406D80117962D917A
:1010D0003D914D915C911A970E94901A6B017C0191
:1010E00020E030E0A9010E942A1A87FF2DC0C70125
:1010F000B60190580E94571CF801628382E090E08C
:1011000094838383D8018D919C91B8016D5F7F4F4B
:10111000DC01ED91FC910480F581E02D1995F80139
:1011200080819181DC01ED91FC910280F381E02DC1
:10113000D80112962C912983BE016F5F7F4F1995BC
:10114000BA81BF5FBA831BCFE1E0F0E0D80114960B
:10115000FC93EE931397D6CF26960FB6F894DEBF86
:101160000FBECDBFDF91CF911F910F91FF90EF90F8
:10117000DF90CF90BF90AF909F908F907F906F90B7
:101180005F904F903F902F9008950F931F93CF93B0
:10119000DF93FB010081C02FD0E0FC01128161E0F0
:1011A000812F0E948703209741F460E0812FDF9117
:1011B000CF911F910F910C945903CF3FD10511F49A
:1011C00061E0F4CFE12FF0E0E75EFB4FE491E15006
:1011D000E23108F0B4C0F0E08827EE50F74F8F4FAF
:1011E0000C94701B04090D0912091C0926099F099A
:1011F0003009380940094A0954095E096D0977091F
:101200009F0981098B09950984B5806884BD07BD54
:10121000DF91CF911F910F91089584B5806284BDB5
:1012200008BDF6CF80918000806880938000D093C5
:101230008900C0938800ECCF809180008062809309
:101240008000D0938B00C0938A00E2CF8091800011
:10125000886080938000D0938D00C0938C00D8CF9D
:101260008091B00080688093B0000093B300D0CF2D
:101270008091B00080628093B0000093B400C8CF2A
:1012800080919000806880939000D0939900C093E3
:101290009800BECF80919000806280939000D093A0
:1012A0009B00C0939A00B4CF809190008860809397
:1012B0009000D0939D00C0939C00AACF8091A00085
:1012C00080688093A0008091A0008F7B8093A00015
:1012D000D093A900C093A8009BCF8091A00080620A
:1012E0008093A000D093AB00C093AA0091CF8091CF
:1012F000A00088608093A000D093AD00C093AC00A4
:1013000087CF80912001806880932001D0932901AC
:10131000C09328017DCF80912001806280932001BD
:10132000D0932B01C0932A0173CF80912001886054
:1013300080932001D0932D01C0932C0169CFC03838
:10134000D1050CF03DCF31CF0F931F93CF93DF9397
:10135000EC01FB010081118161E0023011050CF00C
:1013600060E08B810E9459038D819E81019761F419
:1013700061E0023011050CF460E08C81DF91CF91C7
:101380001F910F910C945903DF91CF911F910F91F1
:101390000895CF93DF93EC0161E08A810E94870377
:1013A00061E08B810E9487038D819E81019721F4EA
:1013B00061E08C810E94870360E08A81DF91CF9198
:1013C0000C9459030F931F93CF93DF931F92CDB7C4
:1013D000DEB78C01CB01D8016D937C930E94C909C3
:1013E000F80180819181DC01ED91FC910280F38113
:1013F000E02D1982BE016F5F7F4F19950F90DF912D
:10140000CF911F910F9108951F93CF93DF93EC011C
:1014100088810E943003182F8A8181110FC01130FA
:1014200069F489810E943003811106C08B8181306B
:1014300029F48FEF8B8302C0813099F01A838B815E
:101440008130A1F48C819D81AE81BF810196A11D67
:10145000B11D8C839D83AE83BF83DF91CF911F919C
:1014600008958B818F3F51F71B83E8CF8C819D813D
:10147000AE81BF810197A109B109EBCF82E196E06E
:101480000C94040A8AE096E00C94040AFC0170961D
:1014900028E5DF011D922A95E9F788599F4FFC0145
:1014A000118210820895FB0101900020E9F7319725
:1014B000AF01461B570BDC01ED91FC910280F381DB
:1014C000E02D19948F929F92AF92BF92EF92FF926C
:1014D0000F931F93CF93DF93CDB7DEB7A1970FB6CE
:1014E000F894DEBF0FBECDBF7C01FA01CB0119A27B
:1014F000223008F42AE08E010F5D1F4F822E912CBE
:10150000B12CA12CBF01A50194010E944E1BF90131
:10151000CA016A300CF5605DD8016E938D01232BF2
:10152000242B252B79F790E080E0109721F0BD0166
:10153000C7010E94530AA1960FB6F894DEBF0FBEF2
:10154000CDBFDF91CF911F910F91FF90EF90BF9092
:10155000AF909F908F900895695CDECF8F929F929D
:10156000AF92BF92CF92DF92EF92FF920F931F93B1
:10157000CF93DF937C01EB016C0182E0C80ED11C9C
:101580004701E5E08E0E911C10E000E0F60141916C
:101590006F0150E070E060E02AE0CE010E94620A34
:1015A0005C01E881F9810190F081E02D6EE2CE01CD
:1015B00019958A0D9B1D080F191FC814D90431F7FE
:1015C000F701458150E070E060E02AE0CE010E9422
:1015D000620A800F911FDF91CF911F910F91FF90B1
:1015E000EF90DF90CF90BF90AF909F908F90089535
:1015F0006CE673E00C94530A0F931F93CF93DF9321
:10160000EC010E94530A8C01CE010E94F80A800F5F
:10161000911FDF91CF911F910F910895CF93DF9389
:1016200065EE72E08CE793E00E941D048CE793E086
:101630000E94F80AC0917A03D0917B032097A1F011
:1016400062EE72E08CE793E00E941D046A817B8168
:101650008CE793E00E941D048CE793E00E94F80A57
:101660000990D881C02DEACF90E080E0DF91CF9142
:101670000895EF92FF920F931F93CF93DF937B0117
:101680008A01EC01CB5ADF4F88819981DC01ED9111
:10169000FC910280F381E02D1995888199810E9447
:1016A000F80AE7010E0D1F1DC017D10789F04991F7
:1016B000042E000C550B660B770B20E186E394E0BB
:1016C0000E94620A60E286E394E00E94D704ECCFB5
:1016D00086E394E0DF91CF911F910F91FF90EF90FF
:1016E0000C94F80A6115710511F00C94530A90E0FE
:1016F00080E00895CF93DF93EC0186E394E00E94AD
:10170000F80A60EB72E086E394E00E94FC0A68ED60
:1017100072E086E394E00E94720BBE0186E394E0DF
:101720000E94720B63EE72E086E394E00E94720BFB
:1017300066EE72E086E394E00E94FC0A6CEE72E0D2
:1017400086E394E00E94720B66E373E086E394E024
:101750000E94720B68EF72E086E394E00E94FC0A3C
:1017600061E073E086E394E00E94720B68E073E04E
:1017700086E394E00E94FC0A86E394E0DF91CF9137
:101780000C94F80A85E193E00C947A0B0E94911E68
:101790000F931F93CF93DF93EC018881998100977A
:1017A00059F02A813B812617370730F081E0DF911D
:1017B000CF911F910F9108958B016F5F7F4F0E9412
:1017C000B01D009759F0998388831B830A832C816D
:1017D0003D81232B59F7FC011082E8CF80E0E7CF51
:1017E000EF92FF920F931F93CF93DF9361157105D3
:1017F00041F480E0DF91CF911F910F91FF90EF9026
:10180000089541155105B1F07B01EC010C811D815A
:10181000040F151FB8010E94C80B882351F32881BB
:1018200039818C819D81B701820F931F0E94AA1E6E
:101830001D830C8381E0DECF42E050E065E373E07E
:101840000C94F00BEF92FF920F931F93CF93DF93C3
:10185000CDB7DEB764970FB6F894DEBF0FBECDBF2D
:101860007C01CB01BA018E010F5F1F4F22E044E0E3
:101870000E942D17FC0101900020E9F73197AF017C
:10188000481B590BBC01C7010E94F00B64960FB6B0
:10189000F894DEBF0FBECDBFDF91CF911F910F91A6
:1018A000FF90EF900895EF92FF920F931F93CF93C5
:1018B000DF93CDB7DEB72D970FB6F894DEBF0FBE1E
:1018C000CDBF7C01CB01BA012AE08E010F5F1F4F13
:1018D000A8010E948D17F80101900020E9F73197C7
:1018E000AF01401B510BB801C7010E94F00B2D96B0
:1018F0000FB6F894DEBF0FBECDBFDF91CF911F9121
:101900000F91FF90EF900895EF92FF920F931F9326
:10191000CF93DF9300D000D01F92CDB7DEB77C010C
:10192000CB014AE08E010F5F1F4FB8010E94AF1735
:10193000F80101900020E9F73197AF01401B510BEE
:10194000B801C7010E94F00B27960FB6F894DEBFCE
:101950000FBECDBFDF91CF911F910F91FF90EF9000
:101960000895CF93DF93EC0188819981009711F05E
:101970000E94271D198218821D821C821B821A82D6
:10198000DF91CF910895EF92FF920F931F93CF9322
:10199000DF93EC018B016115710551F0CB010E94C1
:1019A00052177C01BC01CE010E94C80B81110BC0F3
:1019B000CE010E94B10CCE01DF91CF911F910F910A
:1019C000FF90EF900895FD82EC82B80188819981A3
:1019D0000E944B17F0CFFC0180819181009711F09C
:1019E0000C94271D08950F931F93CF93DF9300D07E
:1019F00000D0CDB7DEB78C011A8219821C821B82FF
:101A00001E821D82CE0101960E94C30CD801ED9169
:101A1000FC910190F081E02D6DE2C80119952AE05A
:101A200041E050E060E070E0C8010E94620A8D81F0
:101A30009E81892B21F0E981FA81309721F410925F
:101A40007903E9E7F3E080818823A1F06FE574E092
:101A5000C8010E941D044D815E8169817A81D8018F
:101A6000ED91FC910280F381E02DC8011995C80128
:101A70000E94F80ACE0101960E94EB0CC8010E9458
:101A8000460A8FEF9FEFF8019787868726960FB655
:101A9000F894DEBF0FBECDBFDF91CF911F910F91A4
:101AA0000895EF92FF920F931F93CF93DF9300D08F
:101AB00000D0CDB7DEB77B011A8219821C821B824F
:101AC0001E821D82BC01CE0101960E94C30C8D8135
:101AD0009E81892B71F009811A8160E270E0C80152
:101AE0000E949F1E009729F0AC01401B510B57FF2D
:101AF00002C048E550E0B70189819A810E94B11E79
:101B00008C01CE0101960E94EB0CC80126960FB6FF
:101B1000F894DEBF0FBECDBFDF91CF911F910F9123
:101B2000FF90EF900895AF92BF92CF92DF92EF9225
:101B3000FF920F931F93CF93DF9300D000D0CDB7C8
:101B4000DEB76C018B0186E090E00E948B1C7C016B
:101B5000FC01D382C2821583048300917A03109121
:101B60007B038AE7C82E83E0D82E0115110509F101
:101B7000F801628173811A8219821C821B821E8283
:101B80001D82CE0101960E94C30C69817A81F70102
:101B9000828193810E94510D5C01CE0101960E94C9
:101BA000EB0C1A141B042CF46801F801008111815C
:101BB000DCCFF601F182E082F701118300832696E3
:101BC0000FB6F894DEBF0FBECDBFDF91CF911F914E
:101BD0000F91FF90EF90DF90CF90BF90AF9008955E
:101BE0004F925F926F927F92BF92CF92DF92EF926D
:101BF000FF920F931F93CF93DF93CDB7DEB7DC0136
:101C0000CDB6DEB65296ED91FC915397138617969A
:101C10008D919C91189795878487118A108A868563
:101C20009785019697878687CF014496938B828B01
:101C300028E0FC0111922A95E9F712965C9112971F
:101C400052960D911C91539730E020E040E05417DC
:101C500079F1F801808991898830910528F51396EA
:101C6000ED91FC911497E20FF31FED59FF4F019096
:101C7000F081E02D0190F081E02D408C518C628C40
:101C8000738CF801E288F388BC016F5F7F4F718B22
:101C9000608B880F991F880F991FF701E80FF91FB4
:101CA00040825182628273824F5F2B593F4FCFCF68
:101CB000EDB6FEB68DB79EB787970FB6F8949EBF68
:101CC0000FBE8DBF6DB77EB76F5F7F4FD8011B967C
:101CD0008C911B97EDB7FEB781831D968C91DB012C
:101CE00011968C931197F801848512968C93129714
:101CF000878513968C931397868514968C931497E7
:101D0000818915968C931597808916968C93B12CA2
:101D100047E050E08B2D90E0D80150962D913C91FA
:101D200051978217930748F5880F991F880F991FBD
:101D300052962D913C91820F931FFC01408051805F
:101D4000628073809B01240F351FBB2777FCBA95F7
:101D5000A72D962D852DFC01EE27472C55246624B2
:101D60007724E429F52984E0D90101900D928A9520
:101D7000E1F74C5F5F4FB394CDCFED91FC910190B3
:101D8000F081E02DC80119950FB6F894FEBE0FBE84
:101D9000EDBEEDB7FEB7B7970FB6F894FEBF0FBE16
:101DA000EDBF8DB79EB701967C01D801ED91FC91F6
:101DB0000280F381E02D47E250E0BC01C801199593
:101DC0008830910528F4F801EC5AFF4F108260C06A
:101DD000F7012081D80112962C931297418122811C
:101DE000022E000C330B342B14963C932E93139736
:101DF00043812481022E000C330B342B16963C9326
:101E00002E93159745812681022E000C330B342B1F
:101E100018963C932E9317970797220F331F220F84
:101E2000331F8217930779F6B7E0EB0EF11CB12C44
:101E30002B2D30E0F801878190852817390720F590
:101E4000D7014D915D916D917D917D01220F331FE1
:101E5000220F331FA185B2852A0F3B1FBB2777FDB9
:101E6000BA95A72F962F852FFC01EE27472F5527D0
:101E700066277727E42BF52B84E0D90101900D929A
:101E80008A95E1F7B394D4CFEC5AFF4F81E0808379
:101E90000FB6F894DEBE0FBECDBEDF91CF911F917D
:101EA0000F91FF90EF90DF90CF90BF907F906F9059
:101EB0005F904F9008951F920F920FB60F921124CA
:101EC0002F933F938F939F93AF93BF938091710311
:101ED00090917203A0917303B091740330917003D9
:101EE00023E0230F2D3758F50196A11DB11D209336
:101EF00070038093710390937203A0937303B09364
:101F000074038091750390917603A0917703B0914B
:101F100078030196A11DB11D8093750390937603FC
:101F2000A0937703B0937803BF91AF919F918F9166
:101F30003F912F910F900FBE0F901F90189526E89C
:101F4000230F0296A11DB11DD2CF1F920F920FB683
:101F50000F9211240BB60F922F933F934F935F93E1
:101F60006F937F938F939F93AF93BF93EF93FF9361
:101F7000E0910E02F0910F021995FF91EF91BF9140
:101F8000AF919F918F917F916F915F914F913F9111
:101F90002F910F900BBE0F900FBE0F901F901895B2
:101FA0001F920F920FB60F9211240BB60F922F9320
:101FB0003F934F935F936F937F938F939F93AF93D1
:101FC000BF93EF93FF93E0910C02F0910D021995EE
:101FD000FF91EF91BF91AF919F918F917F916F9101
:101FE0005F914F913F912F910F900BBE0F900FBEBD
:101FF0000F901F9018951F920F920FB60F921124F9
:102000000BB60F922F933F934F935F936F937F93F2
:102010008F939F93AF93BF93EF93FF93E09102024F
:10202000F09103021995FF91EF91BF91AF919F91AC
:102030008F917F916F915F914F913F912F910F9071
:102040000BBE0F900FBE0F901F9018951F920F920E
:102050000FB60F9211240BB60F922F933F934F930D
:102060005F936F937F938F939F93AF93BF93EF9300
:10207000FF93E0910002F09101021995FF91EF9119
:10208000BF91AF919F918F917F916F915F914F9190
:102090003F912F910F900BBE0F900FBE0F901F908E
:1020A00018951F920F920FB60F9211240BB60F9234
:1020B0002F933F934F935F936F937F938F939F9350
:1020C000AF93BF93EF93FF93E0910A02F0910B025D
:1020D0001995FF91EF91BF91AF919F918F917F9152
:1020E0006F915F914F913F912F910F900BBE0F9089
:1020F0000FBE0F901F9018951F920F920FB60F9260
:1021000011240BB60F922F933F934F935F936F93CE
:102110007F938F939F93AF93BF93EF93FF93E09140
:102120000802F09109021995FF91EF91BF91AF91CB
:102130009F918F917F916F915F914F913F912F91DF
:102140000F900BBE0F900FBE0F901F9018951F920F
:102150000F920FB60F9211240BB60F922F933F934D
:102160004F935F936F937F938F939F93AF93BF939F
:10217000EF93FF93E0910602F09107021995FF910A
:10218000EF91BF91AF919F918F917F916F915F91EF
:102190004F913F912F910F900BBE0F900FBE0F905C
:1021A0001F9018951F920F920FB60F9211240BB625
:1021B0000F922F933F934F935F936F937F938F93E0
:1021C0009F93AF93BF93EF93FF93E0910402F0913D
:1021D00005021995FF91EF91BF91AF919F918F915A
:1021E0007F916F915F914F913F912F910F900BBE17
:1021F0000F900FBE0F901F9018951F920F920FB661
:102200000F9211240BB60F922F933F934F935F932E
:102210006F937F938F939F93AF93BF93EF93FF93AE
:1022200086E394E00E94B504FF91EF91BF91AF91D6
:102230009F918F917F916F915F914F913F912F91DE
:102240000F900BBE0F900FBE0F901F9018951F920E
:102250000F920FB60F9211240BB60F922F938F93FC
:102260009F93EF93FF93E0914604F09147048081A0
:10227000E0914C04F0914D0482FD1DC0908180914D
:102280004F048F5F8F7320915004821741F0E091CB
:102290004F04F0E0EA5CFB4F958F80934F04FF9171
:1022A000EF919F918F912F910F900BBE0F900FBECA
:1022B0000F901F9018958081F2CF4F925F926F928E
:1022C0007F928F929F92AF92BF92EF92FF920F9365
:1022D0001F93CF93DF93CDB7DEB7C455D1090FB6A7
:1022E000F894DEBF0FBECDBF06E314E0D80113960D
:1022F0001C921E92129788EE93E0A0E0B0E0F801E5
:1023000084839583A683B78324E232E031832083DC
:1023100025EC30E03587248724EC30E037872687AA
:1023200020EC30E0318B208B21EC30E0338B228BA2
:1023300022EC30E0358B248B26EC30E0378B268B7B
:10234000118E128E138E148EECE7F3E0138212823C
:1023500084839583A683B78386E392E09183808309
:1023600015861486178616868BE597E19093E7030A
:102370008093E603CF010E94460A6EE07BE082E68E
:1023800094E00E94930DE8EEF3E088E4E82E82E00A
:10239000F82EF182E0821282138214821582EEEE10
:1023A000F3E0F182E0821282138214821582E4EF5C
:1023B000F3E0F182E0821282138214821582E0E05F
:1023C000F4E0F182E0821282138214821582EAEF35
:1023D000F3E0F182E0821282138214821582E6E039
:1023E000F4E0F182E0821282138214821582ECE022
:1023F000F4E0F182E0821282138214821582E2E11B
:10240000F4E0F182E0821282138214821582E8E104
:10241000F4E0F182E0821282138214821582E2E1FA
:10242000F6E085E1808383E18183128291E09383EA
:102430001482158216821782EAE0F6E08083818397
:1024400012829383148215821682178285E0E6E158
:10245000F2E0DE01119601900D928A95E1F78EE48B
:1024600092E0909304068093030625E0FE013196E6
:10247000A5E0B6E001900D922A95E1F725E0EBE1A9
:10248000F2E0DE01119601900D922A95E1F790930A
:10249000FD058093FC0585E0FE013196AEEFB5E0C9
:1024A00001900D928A95E1F784E2ECE8F2E0DE011A
:1024B0001D9601900D928A95E1F784E2E8E6F2E03C
:1024C000DE01D19601900D928A95E1F7E2E3F5E005
:1024D00012821482138296E6492E542C96E4692EB9
:1024E00090E4792E49825A826B827C8229E9822E7D
:1024F0002BEB922E26E9A22E2CE3B22E8D829E8209
:10250000AF82B88619861A861B861C8684E5FE0172
:102510003196A9E3B5E001900D928A95E1F710920A
:102520008D0510928E0510928F05109290051092D5
:1025300092051092910582E090E00E948B1C25E4A8
:1025400035E0DC012D933C939093940580939305A3
:1025500082E090E00E948B1C29E635E0FC0131838B
:102560002083909396058093950584E2ECE8F2E051
:10257000DE011D9601900D928A95E1F784E2E8E66E
:10258000F2E0DE01D19601900D928A95E1F710926A
:10259000990510929B0510929A0549825A826B8286
:1025A0007C828D829E82AF82B88619861A861B86AF
:1025B0001C8684E5FE013196AEE9B5E001900D92EE
:1025C0008A95E1F71092F2051092F3051092F40546
:1025D0001092F5051092F7051092F60582E090E052
:1025E0000E948B1C2AEA35E0DC012D933C939093EA
:1025F000F9058093F80582E090E00E948B1C2EEC98
:1026000035E0FC01318320839093FB058093FA052C
:10261000ECE2F5E0F182E0821282138214821582EC
:10262000E3EDF4E0138615861486118A108A178666
:10263000168627EE34E0338B228B47E055E0528735
:10264000418788E0D901982F1D929A95E9F7DA0120
:102650001D928A95E9F71092270584E692E091830E
:10266000808380E895E290932B0580932A05109350
:10267000290500932805E2E2F4E0128288EE93E057
:10268000908B878788E592E091838083EEE1F4E088
:102690001183008380E092EC93838283CC5ADF4FD6
:1026A0000FB6F894DEBF0FBECDBFDF91CF911F9163
:1026B0000F91FF90EF90BF90AF909F908F907F9081
:1026C0006F905F904F900895CF93DF93CDB7DEB7B3
:1026D0006E970FB6F894DEBF0FBECDBF789484B569
:1026E000826084BD84B5816084BD85B5826085BD0E
:1026F00085B5816085BD80916E00816080936E009C
:10270000109281008091810082608093810080918D
:10271000810081608093810080918000816080933E
:1027200080008091B10084608093B1008091B000FE
:1027300081608093B00080919100826080939100CD
:1027400080919100816080939100809190008160E0
:10275000809390008091A10082608093A10080917D
:10276000A10081608093A1008091A000816080938E
:10277000A00080912101826080932101809121013C
:1027800081608093210180912001816080932001EC
:1027900080917A00846080937A0080917A008260D0
:1027A00080937A0080917A00816080937A00809192
:1027B0007A00806880937A001092C10064E670E02D
:1027C00080E090E00E94960664E670E080E090E091
:1027D0000E94960663E076E082E395E00E94E209BB
:1027E00082E196E0909338058093370562E080910E
:1027F00012060E94870362E0809113060E948703FD
:1028000010921606109217061092180610921906CA
:102810006CEF75E087E995E00E94E2098AE096E0B6
:1028200090939D0580939C0562E080910A060E942A
:10283000870362E080910B060E94870310920E06C8
:1028400010920F0610921006109211068EE39AE075
:10285000909301028093000280916A008C7F8160D6
:1028600080936A00EC9A82E49AE090930502809348
:102870000402809169008C7F816080936900E89AEE
:1028800040912A0550912B0570E060E08091280569
:10289000909129050E94690282E08093240482E3DA
:1028A00095E0909326048093250483ED94E0909323
:1028B000350480933404409120045091210470E049
:1028C00060E080911E0490911F040E946902809133
:1028D0001E0490911F04909389038093880362ECF7
:1028E0007BE08DEF92E00E94930D6CED75E080E04F
:1028F00090E00E94960668E373E086E394E00E940D
:10290000FC0A88E493E00E947A0B6CED75E080E0AD
:1029100090E00E94960688E493E00E947A0B68E3B8
:1029200073E086E394E00E94FC0A8E010F5F1F4F64
:102930000E9410044B015C010E9410042B010E94B4
:10294000B8036B8F7C8F8D8F9E8F82E294E00E9404
:10295000C6056C01F12CE12CC0922D04D0922E04FE
:10296000E0922F04F092300480913104909132046F
:10297000C80ED91EE11CF11C0E9410046C157D05C7
:102980008E059F0508F0D2C082E294E00E94A6075F
:102990001092330482E294E00E94F00D0E94100431
:1029A0006419750970932A04609329040E94B8037E
:1029B000AB8DBC8D6A1B7B0B70932C0460932B0436
:1029C0001E8A1D8A188E1F8A1A8E198E70E060E08A
:1029D000CE0145960E94C80B8111F6C0CE014596E6
:1029E0000E94B10C0E941004AB01BC01CE014596BF
:1029F0000E94530CCE0145960E941C0C6091290444
:102A000070912A04CE0145960E94840CCE01459611
:102A10000E941C0C60912B0470912C04CE014596F1
:102A20000E94840CCE0145960E941C0C40912D04FE
:102A300050912E0460912F0470913004CE01459680
:102A40000E94530CCE0145960E941C0C80913304C9
:102A50004AE0B80190E00E948217F801019000203E
:102A6000E9F73197AF01401B510BB801CE014596F4
:102A70000E94F00BCE0145960E941C0C809124040C
:102A80004AE0B80190E00E948217F801019000200E
:102A9000E9F73197AF01401B510BB801CE014596C4
:102AA0000E94F00BCE0145960E941C0CD12C809107
:102AB0002404D81608F091C0B5E6DB9E70011124FD
:102AC000E0912504F0912604EE0DFF1DEF59FF4F14
:102AD0000190F081E02D0190F081E02D408D518D2D
:102AE000628D738DCE0145960E94220CCE014596D3
:102AF0000E941C0CE0912504F0912604EE0DFF1DB0
:102B0000ED59FF4F0190F081E02D0190F081E02D13
:102B1000408D518D628D738DCE0145960E94220CA1
:102B2000CE0145960E941C0CD394C1CFD12C80912C
:102B30002404D81608F044C0E0902504F090260440
:102B400025E6D29EE00CF11C112417013FE5230E6F
:102B5000311CD1011D921C92F701EF59FF4F0190DA
:102B6000F081E02D0190F081E02D148A158A168AFB
:102B7000178A108E118E128E138ED7011596ED9135
:102B8000FC9114821582168217820E941004F701AC
:102B9000E55AFF4F608371838283938321E030E0A5
:102BA000F1013183208334960190F081E02D019072
:102BB000F081E02D148A158A168A178AD394B7CF2C
:102BC00031E030933304E6CE1A8E198E65E673E059
:102BD0008D899E890E94AA1E05CF498D5A8D6D89C7
:102BE0007E8986E394E00E94410486E394E00E949B
:102BF000F80ACE0145960E94EB0C8CE793E00E9408
:102C000093058D30910509F46EC05CF50097A9F32A
:102C10000CF58F3F980709F495C02091E40330919B
:102C2000E503A9014F5F5F4F5093E5034093E40331
:102C300024583C4FF901808B682F8CE793E00E9469
:102C4000B3058091E4039091E503873591050CF07D
:102C50004EC0D3CF88309105F1F08A30910569F2EA
:102C6000DCCF85319105A1F184F482319105A9F67B
:102C70006CE673E08CE793E00E94720B6CE873E003
:102C80008CE793E00E94720BB8CF8B33910559F11A
:102C90008F37910511F68091E4039091E5031816A2
:102CA00019060CF0AACF62E673E08CE793E00E946D
:102CB000720B8091E4039091E50301979093E503F3
:102CC0008093E40384589C4FDC0150961C9295CF6E
:102CD00066E673E08CE793E00E94FC0A8CE793E0E1
:102CE0000E94460A8ACF8CE793E00E94F80AD80136
:102CF000E4E11D92EA95E9F71092E3031E8A1D8A2A
:102D0000E091E603F091E703AE014B5E5F4F6AE6A8
:102D100073E08CE893E01995009729F569E373E077
:102D20008CE793E00E941D048CE793E00E94F80A70
:102D30008CE793E00E94460A6CE373E08CE793E033
:102D40000E941D040E941004861A970AA80AB90A54
:102D5000C501B40196958795779567950E9496066B
:102D60000E944405E5CD9A8389836E01F3E0CF0E7E
:102D7000D11CEE24E394F12CE091E603F091E703FB
:102D8000AE014B5E5F4F6AE673E090E080E019951C
:102D9000009771F02FEFE21AF20AD6018D939D93FE
:102DA0006D01BAE0EB16F10439F76DE173E038C05C
:102DB00010928B0310928A03C0907A03D0907B0309
:102DC000C114D104C9F069817A81F60182819381AD
:102DD0000E94510D892B61F4D6011496ED91FC915E
:102DE000B801C701199590938B0380938A03A0CFF4
:102DF000F601C080D180E4CF6BE173E08CE793E013
:102E00000E941D0469817A818CE793E00E94720B15
:102E100067E173E08CE793E00E941D0465E073E0D6
:102E20008CE793E00E94F30C87CF8091F805909196
:102E3000F9050E94271D8091FA059091FB050E94DB
:102E4000271D80919305909194050E94271D8091E4
:102E50009505909196050C94271DEF920F931F9363
:102E6000CF93DF93E80134E047FD34E1042E000CFA
:102E7000550B57FF03C0519541955109E32E022F81
:102E8000242FAE010E94C917CE01DF91CF911F916F
:102E90000F91EF900895FB01DC0105900D92002049
:102EA000E1F70895FC0105900020E9F780959095E1
:102EB0008E0F9F1F0895FA01A191B081009719F418
:102EC0001097E1F0CD01DC01CD010D90002011F44F
:102ED000C00113C0FB012191222319F02015D9F75D
:102EE000F3CFFB012191201519F41E92119606C013
:102EF0002223C1F70D900020A1F7D001FA01A19380
:102F0000B0830895BB274A3031F4992322F4BDE2FF
:102F1000909581959F4F0C94B017BB27FA01A62F6F
:102F20006217710581059105330B30FB66F0AA2706
:102F3000660F771F881F991FAA1FA21710F0A21BE8
:102F400063953850A9F7A05DAA3308F0A95DA19355
:102F500036F7B111B1931082CA010C941A1ABB272B
:102F6000FB015527AA27880F991FAA1FA41710F045
:102F7000A41B83955051B9F7A05DAA3308F0A95D51
:102F8000A193009779F7B111B1931192CB010C94F1
:102F90001A1A8F929F92AF92BF92CF92DF92EF92C6
:102FA000FF920F931F93CF93DF9300D000D000D0F8
:102FB000CDB7DEB76A01F22EB02E102FFBE3AF2E95
:102FC000A01608F41BE31F5F012F27E0AE014F5F3F
:102FD0005F4F0E944219BC018981982F99709130EE
:102FE00009F44EC09BE2E1FC04C09E2D9170E0FC10
:102FF00049C05E2D5071E82FE87083FF55C084E012
:10300000911101C083E0EF2DE81B8F1508F0E0E07F
:10301000D6018E2F20E25523C9F1992329F0D6013C
:103020009C93C60101966C0196012D5F3F4FE2FE15
:1030300033C08EE4D6018C9391E411969C93119742
:1030400012968C93D9018E2F90E281112AC0E20F43
:10305000F32FF11D10828EEF9FEF29960FB6F89493
:10306000DEBF0FBECDBFDF91CF911F910F91FF90BB
:10307000EF90DF90CF90BF90AF909F908F9008958A
:103080009DE2B7CF90E2B5CF2D9381508111FCCF57
:10309000CE0ED11CE0E0C1CF8EE6D6018C9391E636
:1030A000CCCF9D938150D1CF482F447082FF3DC03B
:1030B00084E0911101C083E08F1510F4EF2DE81B1F
:1030C000D6018E2F20E2552309F1992329F0D6014C
:1030D0009C93C60101966C0196012D5F3F4FE2FE65
:1030E0001BC089E4D6018C938EE411968C931197C2
:1030F00086E412968C93D9018E2F90E2882309F4EE
:10310000A6CF9D938150FACF2D9381508111FCCF92
:10311000CE0ED11CE0E0D9CF89E6D6018C938EE6A5
:1031200011968C93119786E6E4CF9B0177FF02C03E
:1031300030E020E0A1E0B0E0911102C0B0E0A0E0FA
:10314000F9013196AE0FBF1F8B2C912CBB2009F4D7
:1031500061C05401EFEFAE1ABE0AAA0DBB1DFA16EC
:103160001B0619F014F04F2D4A1B511188C0E3FCC7
:1031700059C07601A42FB0E2A1114FC0C40ED11CDA
:10318000992309F45BC040E0D6011196F6019083C3
:103190006D01552309F448C0012F060F9A81582F5D
:1031A000507184FF03C0913309F4015010160CF0E4
:1031B00047C0093008F008E0EEE2FE2E5B01A01ADD
:1031C000B10885019194819491082F3F320729F429
:1031D000D601FC92F60131966F016217730794F1E4
:1031E000021713077CF5DB01A21BB30BAA24A394DF
:1031F000B12CAC0EBD1EAA0DBB1D11968C91215099
:103200003109D601119628153905F4F0F6018083AD
:103210006D01DBCFB12CA12CA0CFF701B1937F01C1
:10322000A150AACF9111B0CFD601942F50E302C084
:103230005D9391509111FCCFC40ED11C40E0ACCFF6
:1032400001E0BACF80E3DBCF6217730731F4963326
:1032500088F4953311F4552369F0F6018083FD015C
:10326000842F90E2811108C0A40FB11D1C9290E040
:1032700080E0F3CE81E3F1CF91938150F3CF9111B0
:1032800083CF8ACF283008F027E03327DA01990F5F
:10329000311D87FD916000966105710539F432603A
:1032A0002E5F3D9330E32A95E1F708959F3F30F07C
:1032B00080387105610509F03C5F3C5F3D939130BA
:1032C00008F08068911DDF93CF931F930F93FF92B7
:1032D000EF92192F987F9695E92F96959695E90F7D
:1032E000FF27EE5BFD4F99273327EE24FF24A7012C
:1032F000E70105900894079428F4360FE71EF81E9E
:10330000491F511D660F771F881F991F0694A1F74B
:103310000590079428F4E70EF81E491F561FC11D9B
:10332000770F881F991F661F0694A1F705900794D1
:1033300028F4F80E491F561FC71FD11D880F991F6B
:10334000661F771F0694A1F70590079420F4490F94
:10335000561FC71FD81F990F661F771F881F069417
:10336000A9F784911095177041F0D695C795579598
:103370004795F794E7941A95C1F7E8EEF1E0689461
:103380001590159135916591959105907FE2739512
:10339000E118F10A430B560BC90BD009C0F7E10C39
:1033A000F11E431F561FC91FD01D7EF4703311F448
:1033B0008A95E6CFE894015030F0080F0AF4002710
:1033C000021708F4202F2395022F7A3328F079E38F
:1033D0007D932A95E9F710C07D932A9589F6069486
:1033E00097956795379517951794E118F10A430B50
:1033F000560BC90BD00998F023957E9173957A33BB
:1034000008F070E37C932013B8F77E9170617D9390
:1034100030F0839571E37D9370E32A95E1F71124F1
:10342000EF90FF900F911F91CF91DF91992787FD2A
:1034300090950895DC01FC01672F71917723E1F7E6
:10344000329704C07C916D9370836291AE17BF0771
:10345000C8F308950E946C1A08F481E00895E89476
:1034600009C097FB3EF490958095709561957F4FCC
:103470008F4F9F4F9923A9F0F92F96E9BB2793957A
:10348000F695879577956795B795F111F8CFFAF48A
:10349000BB0F11F460FF1BC06F5F7F4F8F4F9F4FBB
:1034A00016C0882311F096E911C0772321F09EE819
:1034B000872F762F05C0662371F096E8862F70E07F
:1034C00060E02AF09A95660F771F881FDAF7880F59
:1034D0009695879597F90895990F0008550FAA0BAF
:1034E000E0E8FEEF16161706E807F907C0F0121617
:1034F0001306E407F50798F0621B730B840B950B1A
:1035000039F40A2661F0232B242B252B21F408956E
:103510000A2609F4A140A6958FEF811D811D08950B
:103520000E94A31A0C94141B0E94061B38F00E94E0
:103530000D1B20F0952311F00C94FD1A0C94031B25
:1035400011240C94481B0E94251B70F3959FC1F316
:10355000950F50E0551F629FF001729FBB27F00D41
:10356000B11D639FAA27F00DB11DAA1F649F662796
:10357000B00DA11D661F829F2227B00DA11D621FE5
:10358000739FB00DA11D621F839FA00D611D221F9F
:10359000749F3327A00D611D231F849F600D211D83
:1035A000822F762F6A2F11249F5750409AF0F1F006
:1035B00088234AF0EE0FFF1FBB1F661F771F881F6F
:1035C00091505040A9F79E3F510580F00C94FD1A90
:1035D0000C94481B5F3FE4F3983ED4F386957795AF
:1035E0006795B795F795E7959F5FC1F7FE2B880F15
:1035F000911D9695879597F9089597F99F6780E8AB
:1036000070E060E008959FEF80EC089500240A9434
:103610001616170618060906089500240A941216AD
:103620001306140605060895092E0394000C11F4E0
:10363000882352F0BB0F40F4BF2B11F460FF04C08D
:103640006F5F7F4F8F4F9F4F089557FD9058440FE6
:10365000551F59F05F3F71F04795880F97FB991FF1
:1036600061F09F3F79F087950895121613061406AE
:10367000551FF2CF4695F1DF08C01616170618063B
:10368000991FF1CF86957105610508940895E89416
:10369000BB2766277727CB0197F90895A1E21A2E59
:1036A000AA1BBB1BFD010DC0AA1FBB1FEE1FFF1FE6
:1036B000A217B307E407F50720F0A21BB30BE40B36
:1036C000F50B661F771F881F991F1A9469F760957D
:1036D0007095809590959B01AC01BD01CF01089537
:1036E000EE0FFF1F881F8BBF0790F691E02D1994F6
:1036F0005058BB27AA270E94901B0C94141B0E94B1
:10370000061B38F00E940D1B20F039F49F3F19F47E
:1037100026F40C94031B0EF4E095E7FB0C94FD1AC1
:10372000E92F0E94251B58F3BA1762077307840715
:10373000950720F079F4A6F50C94471B0EF4E0955C
:103740000B2EBA2FA02D0B01B90190010C01CA015B
:10375000A0011124FF27591B99F0593F50F4503E06
:1037600068F11A16F040A22F232F342F4427585FF8
:10377000F3CF469537952795A795F0405395C9F710
:103780007EF41F16BA0B620B730B840BBAF09150C8
:10379000A1F0FF0FBB1F661F771F881FC2F70EC067
:1037A000BA0F621F731F841F48F48795779567953A
:1037B000B795F7959E3F08F0B0CF9395880F08F026
:1037C0009927EE0F9795879508950E94F91B0C9401
:1037D000141B0E940D1B58F00E94061B40F029F498
:1037E0005F3F29F00C94FD1A51110C94481B0C9466
:1037F000031B0E94251B68F39923B1F3552391F312
:10380000951B550BBB27AA2762177307840738F04F
:103810009F5F5F4F220F331F441FAA1FA9F335D0AC
:103820000E2E3AF0E0E832D091505040E695001C60
:10383000CAF72BD0FE2F29D0660F771F881FBB1F1A
:10384000261737074807AB07B0E809F0BB0B802DF8
:10385000BF01FF2793585F4F3AF09E3F510578F024
:103860000C94FD1A0C94481B5F3FE4F3983ED4F38C
:10387000869577956795B795F7959F5FC9F7880FF8
:10388000911D9695879597F90895E1E0660F771F4A
:10389000881FBB1F621773078407BA0720F0621BDB
:1038A000730B840BBA0BEE1F88F7E09508950E9406
:1038B0002D1B88F09F5798F0B92F9927B751B0F07A
:1038C000E1F0660F771F881F991F1AF0BA95C9F7A4
:1038D00014C0B13091F00E94471BB1E008950C94E0
:1038E000471B672F782F8827B85F39F0B93FCCF393
:1038F000869577956795B395D9F73EF49095809521
:10390000709561957F4F8F4F9F4F08950E946C1A5D
:1039100008F48FEF08950F931F93CF93DF938230B6
:10392000910510F482E090E0E0911C06F0911D06F4
:1039300030E020E0B0E0A0E0309799F421153105A7
:1039400009F44AC0281B390B24303105D8F58A8187
:103950009B816115710589F1FB0193838283FE01CF
:1039600011C0408151810281138148175907E0F04D
:103970004817590799F4109761F012960C93129713
:1039800013961C933296CF01DF91CF911F910F9127
:10399000089500931C0610931D06F4CF21153105E0
:1039A00051F04217530738F0A901DB019A01BD011C
:1039B000DF01F801C1CFEF01F9CF90931D0680938D
:1039C0001C06CDCFFE01E20FF31F8193919322508D
:1039D000310939832883D7CF20911A0630911B06ED
:1039E000232B41F4209112023091130230931B06D5
:1039F00020931A06209110023091110221153105F1
:103A000041F42DB73EB74091140250911502241B8A
:103A1000350BE0911A06F0911B06E217F307A0F4AC
:103A20002E1B3F0B2817390778F0AC014E5F5F4F14
:103A30002417350748F04E0F5F1F50931B06409325
:103A40001A06819391939FCFF0E0E0E09CCFCF9353
:103A5000DF930097E9F0FC01329713821282A09164
:103A60001C06B0911D06ED0130E020E01097A1F496
:103A700020813181820F931F20911A0630911B06FD
:103A80002817390709F061C0F0931B06E0931A0666
:103A9000DF91CF910895EA01CE17DF07E8F54A815B
:103AA0005B819E0141155105B1F7E901FB83EA8372
:103AB00049915991C40FD51FEC17FD0761F480811E
:103AC00091810296840F951FE901998388838281F1
:103AD00093819B838A83F0E0E0E012968D919C9124
:103AE00013970097B9F52D913C911197CD0102964E
:103AF000820F931F20911A0630911B062817390751
:103B000039F6309751F510921D0610921C06B093AD
:103B10001B06A0931A06BCCFD383C2834081518178
:103B2000840F951FC817D90761F44E5F5F4F8881D6
:103B30009981480F591F518340838A819B819383C8
:103B400082832115310509F0B0CFF0931D06E09373
:103B50001C069ECFFD01DC01C0CF13821282D7CF9D
:103B60004F925F926F927F928F929F92AF92BF928D
:103B7000CF92DF92EF92FF920F931F93CF93DF9339
:103B80008C01009799F4CB01DF91CF911F910F9198
:103B9000FF90EF90DF90CF90BF90AF909F908F906D
:103BA0007F906F905F904F900C948B1CFC01E60F00
:103BB000F71F9C0122503109E217F30708F4AEC049
:103BC000D901CD91DC911197C617D70720F1C530E7
:103BD000D10578F0CE0104978617970750F0C61BE1
:103BE000D70B2297C193D1936D937C93CF010E9401
:103BF000271DC801DF91CF911F910F91FF90EF908A
:103C0000DF90CF90BF90AF909F908F907F906F90FC
:103C10005F904F9008955B01AC1ABD0A4C018C0E69
:103C20009D1EA0911C06B0911D06512C412CF12C1B
:103C3000E12C109731F580911A0690911B0688159A
:103C4000990509F05CC04616570608F058C08091E7
:103C5000100290911102009741F48DB79EB74091E8
:103C6000140250911502841B950BE817F90708F010
:103C700055C0F0931B06E0931A06F9017183608327
:103C8000B8CF8D919C91119712966C9012971396C4
:103C90007C901397A815B90559F56C0142E0C40E44
:103CA000D11CCA14DB0420F1AC014A195B09DA010A
:103CB0001296159780F06282738251834083D901F6
:103CC0006D937C93E114F10471F0D7011396FC938A
:103CD000EE9312978ECF22968C0F9D1FF901918340
:103CE0008083F301EFCFF0931D06E0931C0681CF94
:103CF0004816590608F42C017D01D3019ACFCB0157
:103D00000E948B1C7C01009749F0AE01B8010E9413
:103D1000961EC8010E94271D87016BCF10E000E0AE
:103D200068CF81E090E0F8940C94C91EFB01DC019F
:103D300002C001900D9241505040D8F70895FC0107
:103D40008191861721F08823D9F799270895319713
:103D5000CF010895FB01DC0101900D920020E1F7F5
:103D60000895FB01DC014150504088F08D91813471
:103D70001CF08B350CF4805E619161341CF06B3566
:103D80000CF4605E861B611171F3990B0895881B1A
:103D9000FCCF12E0C5E3D2E000E006C0802FFE01B8
:103DA0000E94701B2196011DC633D10780E00807D1
:063DB000A9F7F894FFCF13
:103DB6001C041C041C041C041C041C041C041C04FD
:103DC60000001E068000050302010006040701002C
:103DD60000000000D70441046E0424059F047D04FE
:103DE600910400000000B3054104C3057505A30551
:103DF6009305830500000000AE0A00000000C90913
:103E0600C508A409000000005406A607C605F00D63
:103E160000000000390B5D069A99993ECDCCCC3D49
:103E2600CDCC4C3D0000000000000000000000006A
:103E3600000000002184A4C22184A4429A99993EDC
:103E46009A99993ECDCCCC3D0000000000000000C0
:103E560000000000000000002184A4C22184A442C6
:103E66002D2D2D2020204D504F20747261636B2024
:103E76006D6F74696F6E20636F6E74726F6C6C65B4
:103E8600722020202D2D2D006669726D7761726576
:103E96003A2000207600302E302E31004665622012
:103EA600323120323032320031313A31333A35361E
:103EB600006E616D653A2000746D635F6D656761C4
:103EC6003235363000696E636C7564652F706C61CF
:103ED60074666F726D2F636F6E736F6C655F64656A
:103EE60066732E68002C20002D2D2D2020202323E4
:103EF600232020202D2D2D007372635C746D635F6B
:103F06006669726D776172655F6D61696E2E637049
:103F16007000082008005858580020090D0A0000B3
:00000001FF
