:100000000C9474010C94420C0C94170C0C94EC0B93
:100010000C94C10B0C94960B0C946B0B0C94400B32
:100020000C94150B0C94A5010C94A5010C94A5013E
:100030000C94A5010C94A5010C94A5010C94A501A8
:100040000C94A5010C94A5010C94A5010C94A50198
:100050000C94A5010C94A5010C94A5010C94CB0A59
:100060000C94A5010C94970C0C946D0C0C94A501A8
:100070000C94A5010C94A5010C94A5010C94A50168
:100080000C94A5010C94A5010C94A5010C94A50158
:100090000C94A5010C94A5010C94A5010C94A50148
:1000A0000C94A5010C94A5010C94A5010C94A50138
:1000B0000C94A5010C94A5010C94A5010C94A50128
:1000C0000C94A5010C94A5010C94A5010C94A50118
:1000D0000C94A5010C94A5010C94A5010C94A50108
:1000E0000C94A5010C9447070C943E070C94CF0781
:1000F0000C94E0010C94FB080C9458090C94CB016F
:100100000C9405020C94A7070C94D3010C949A0844
:100110000C948E070C94CF010C9421050C947A0753
:100120000C94BD060C94BB070C94FB020C940A02C1
:100130000C946E090C9400020C9459030C94060262
:100140000C949F100C949E050C9496080C948407B4
:100150000C94FF060C9460070C94CD0C0C94DE03F9
:100160000C9472070C94DE070C94DA010C94EA01EB
:100170000C944B030C94FC010C94F8010C94D907DB
:100180000C9498070C94B1070C94FA020C94C501D6
:100190000C94E4010C9456070C94C6060C94C50705
:1001A0000C9491030C94EE010C94D7010C94030869
:1001B0000C9428030C94F2010C9437030C944C0714
:1001C0000C946A0700002100240027002A002D005B
:1001D0003000330001010000040107010A010000A2
:1001E0002200250028002B002E00310034000201DF
:1001F0000000050108010B0100002000230026007B
:1002000029002C002F00320000010000030106012C
:10021000090105050505070508080808020202028C
:100220000A0A080804040404010101010101010192
:100230000303030303030303040707070C0C0C0C5D
:100240000C0C0C0C02020202060606060606060646
:100250000B0B0B0B0B0B0B0B0102102020080810D3
:100260002040102040800201020108040201010226
:1002700004081020408080402010080402018004FF
:10028000020180402010080402010804020101025A
:100290000408102040800102040810204080000063
:1002A0000A0B02090C0D0E080703040100000000F0
:1002B000000000000000000000000000000000003E
:1002C00000000000000000000000121110000000FB
:1002D000000000000000000000000000000000001E
:1002E00000000000CD0C9F1011241FBECFEFD1E203
:1002F000DEBFCDBF00E00CBF12E0A0E0B2E0E8EA54
:10030000F8E200E00BBF02C007900D92A63FB107D4
:10031000D9F725E0A6EFB2E001C01D92AB32B207DB
:10032000E1F711E0C3E7D1E000E006C02197010941
:10033000802FFE010E94D910C237D10780E0080744
:10034000A9F70E94E40E0C9442140C940000815012
:10035000823108F05AC0E82FF0E08827ED54FE4FB4
:100360008F4F0C94D910D301D701C501CB01CF0118
:100370000502DA01E001E401EA01EE01F201F8010F
:10038000FC010502000206020A02809180008F77BC
:10039000809380000895809180008F7DF9CF8091B7
:1003A0008000877FF5CF84B58F7784BD089584B5AD
:1003B0008F7DFBCF8091B0008F778093B000089540
:1003C0008091B0008F7DF9CF809190008F778093DE
:1003D00090000895809190008F7DF9CF80919000DA
:1003E000877FF5CF8091A0008F778093A00008953C
:1003F0008091A0008F7DF9CF8091A000877FF5CFFD
:10040000809120018F7780932001089580912001B1
:100410008F7DF9CF80912001877FF5CFCF93DF9338
:10042000282F30E0F901E256FD4F8491F901E85A96
:10043000FD4FD491F901EE5EFD4FC491CC23A1F0A4
:1004400081110E94A701EC2FF0E0EE0FFF1FE85092
:10045000FE4FA591B491EC91ED2381E090E009F479
:1004600080E0DF91CF91089580E090E0FACF1F9374
:10047000CF93DF93282F30E0F901E256FD4F8491AE
:10048000F901E85AFD4FD491F901EE5EFD4FC49198
:10049000CC23A9F0162F81110E94A701EC2FF0E0C8
:1004A000EE0FFF1FE252FE4FA591B4918FB7F89463
:1004B000EC91111108C0D095DE23DC938FBFDF9142
:1004C000CF911F910895DE2BF8CFCF93DF9390E06B
:1004D000FC01E85AFD4F24918E5E9D4FFC018491F2
:1004E0008823D1F090E0880F991FFC01EC53FE4F58
:1004F000A591B491FC01E252FE4FC591D4916230B6
:1005000071F49FB7F8943C91822F809583238C934C
:10051000E8812E2B28839FBFDF91CF9108958FB75D
:10052000F894EC912E2B2C938FBFF6CF3FB7F89415
:100530008091FB029091FC02A091FD02B091FE021D
:1005400026B5A89B05C02F3F19F00196A11DB11D2E
:100550003FBFBA2FA92F982F8827BC01CD01620F6A
:10056000711D811D911D42E0660F771F881F991F25
:100570004A95D1F708958F929F92AF92BF92CF92F2
:10058000DF92EF92FF926B017C010E9496024B0179
:100590005C01C114D104E104F104B9F00E94960297
:1005A000681979098A099B09683E7340810591059C
:1005B00080F321E0C21AD108E108F10888EE880E24
:1005C00083E0981EA11CB11CE4CFFF90EF90DF9058
:1005D000CF90BF90AF909F908F9008952FB7F894D1
:1005E0006091F7027091F8028091F9029091FA02FD
:1005F0002FBF08950895AF92BF92CF92DF92EF92EE
:10060000FF920F931F93CF93DF936C017B018B01BC
:10061000040F151FEB015E01AE18BF08C017D1070C
:1006200059F06991D601ED91FC910190F081E02D96
:10063000C6011995892B79F7C501DF91CF911F91DB
:100640000F91FF90EF90DF90CF90BF90AF90089503
:10065000FC01538D448D252F30E0842F90E0821BC8
:10066000930B541710F0CF96089501970895FC014D
:10067000918D828D981761F0A28DAE0FBF2FB11DA5
:100680005D968C91928D9F5F9F73928F90E00895FD
:100690008FEF9FEF0895FC01918D828D981731F0B7
:1006A000828DE80FF11D858D90E008958FEF9FEF0B
:1006B0000895FC01918D228D892F90E0805C9F4FE1
:1006C000821B91098F739927089586E493E00E9415
:1006D000590321E0892B09F420E0822F0895FC01C1
:1006E000A48DA80FB92FB11DA35ABF4F2C91848D93
:1006F00090E001968F739927848FA689B7892C93F0
:10070000A089B1898C91837080648C93938D848D42
:10071000981306C00288F389E02D80818F7D808345
:100720000895EF92FF920F931F93CF93DF93EC0105
:1007300081E0888F9B8D8C8D98131AC0E889F98988
:10074000808185FF15C09FB7F894EE89FF8960838B
:10075000E889F98980818370806480839FBF81E00C
:1007600090E0DF91CF911F910F91FF90EF9008954E
:10077000F62E0B8D10E00F5F1F4F0F731127E02E29
:100780008C8D8E110CC00FB607FCFACFE889F98961
:10079000808185FFF5CFCE010E946F03F1CFEB8DF5
:1007A000EC0FFD2FF11DE35AFF4FF0829FB7F89435
:1007B0000B8FEA89FB8980818062CFCFCF93DF9353
:1007C000EC01888D8823B9F0AA89BB89E889F98969
:1007D0008C9185FD03C0808186FD0DC00FB607FC9E
:1007E000F7CF8C9185FFF2CF808185FFEDCFCE01D1
:1007F0000E946F03E9CFDF91CF91089580E090E0F0
:10080000892B29F00E94650381110E94000080E07D
:1008100090E0892B49F080E090E0892B29F00E943C
:10082000000081110E94000080E090E0892B49F0D7
:1008300080E090E0892B29F00E94000081110E9445
:10084000000080E090E0892B49F080E090E0892B67
:1008500029F00E94000081110C94000008952F924D
:100860003F924F925F926F927F928F929F92AF9240
:10087000BF92CF92DF92EF92FF920F931F93CF938D
:10088000DF9300D000D0CDB7DEB72A013B01FC01D9
:100890000190F081E02DFE83ED83C08CD18CE28C41
:1008A000F38CA701960164897589868997890E94CE
:1008B000E1104B015C01ED81FE8120893189428983
:1008C0005389C701B6010E94E110A30192010E9461
:1008D00053119B01AC01505829833A834B835C83AD
:1008E000ED81FE81808A918AA28AB38A2481358132
:1008F00046815781C501B4010E94AB12A301920148
:100900000E94AB12ED81FE81248535854685578591
:100910000E94E2102B013C01ED81FE814486558648
:100920006686778610A101A132A023A0212F302F47
:10093000432D522D0E94A61218160CF06DC0812F67
:10094000902FA32DB22DED81FE8184879587A687F8
:10095000B787ED81FE812081318142815381C501BC
:10096000B4010E94AB12ED81FE8124853585468558
:1009700057850E94E2104B015C01ED81FE812085CC
:1009800031854285538569817A818B819C810E9462
:10099000AB129B01AC01C501B4010E94E2106B01D6
:1009A0007C019B01AC01612F702F832D922D0E9441
:1009B0004E1187FD14C0ED81FE81148D058D368C9E
:1009C000278C9601A701612F702F832D922D0E94F5
:1009D000A612181624F01C2D0D2D3E2C2F2C612F45
:1009E000702F832D922D26960FB6F894DEBF0FBE82
:1009F000CDBFDF91CF911F910F91FF90EF90DF90CE
:100A0000CF90BF90AF909F908F907F906F905F90AE
:100A10004F903F902F900895ED81FE81C48CD58C2E
:100A2000E68CF78CA7019601C301B2010E944E111A
:100A300087FF8FCFED81FE81C486D586E686F78657
:100A400088CF4F925F926F927F928F929F92AF92D8
:100A5000BF92CF92DF92EF92FF920F931F93CF93AB
:100A6000DF938C01DC011F96CD90DC90512C85E644
:100A7000482E66246394712CF8018281581608F080
:100A800049C0C381D481549CC00DD11D1124F4E010
:100A90005F9EC0011124D6011996ED91FC91E80FDB
:100AA000F91F80809180A280B3807E01BFE5EB0EAC
:100AB000F11CF7011182108232960190F081E02D35
:100AC0000190F081E02D148A158A168A178A108EFB
:100AD000118E128E138EED81FE8114821582168284
:100AE00017820E94EE02FE01E55AFF4F6083718378
:100AF00082839383D7016D927C92CD59DF4FE88139
:100B0000F9810190F081E02D848A958AA68AB78ABE
:100B10005394B2CF0E94EE02CB01DF91CF911F918F
:100B20000F91FF90EF90DF90CF90BF90AF909F908C
:100B30008F907F906F905F904F9008952F923F928B
:100B40004F925F926F927F928F929F92AF92BF92DD
:100B5000CF92DF92EF92FF920F931F93CF93DF9389
:100B600000D000D0CDB7DEB79E838D831A82AD81D1
:100B7000BE8112968C91BA81B81708F0E5C0ED815C
:100B8000FE8103811481F5E6BF9F000D111D112424
:100B90000E94EE0258012BE5A20EB11CD501CD90AA
:100BA000DD90ED90FC906C197D098E099F09F8018C
:100BB000C784D088E188F2886C157D058E059F0575
:100BC00008F4B6C00E94F41120E030E04AE754E493
:100BD0000E9453116B017C010E94EE02D5016D93BE
:100BE0007D938D939C931397D8011596ED91FC916D
:100BF0001697AF59BF4F2D903C90D1010D90BC91ED
:100C0000A02DBC83AB8358964D905D906D907C90E9
:100C10005B9764817581868197810E94F611F80146
:100C200023853485458556850E94AB12A301920128
:100C30000E94E1104B015C01AC019B01C301B201B8
:100C40000E94E210AB81BC8158966D937D938D9389
:100C50009C935B972801B3E64B0E511CF201608018
:100C60007180D3010D90BC91A02DBC83AB83A701F3
:100C70009601C501B4010E945311EB81FC81608F84
:100C8000718F828F938FF801E15AFF4F808191819C
:100C9000892B61F4B701A601C1010E942F04D30181
:100CA000ED91FC91648B758B868B978BB701A601B8
:100CB000F201808191810E942F04D80117962D9115
:100CC0003D914D915C911A970E94AB126B017C0192
:100CD00020E030E0A9010E944E1187FF2DC0C7011E
:100CE000B60190580E94C511F801628382E090E03D
:100CF00094838383D8018D919C91B8016D5F7F4F60
:100D0000DC01ED91FC910480F581E02D1995F8014D
:100D100080819181DC01ED91FC910280F381E02DD5
:100D2000D80112962C912983BE016F5F7F4F1995D0
:100D3000BA81BF5FBA831BCFE1E0F0E0D80114961F
:100D4000FC93EE931397D6CF26960FB6F894DEBF9A
:100D50000FBECDBFDF91CF911F910F91FF90EF900C
:100D6000DF90CF90BF90AF909F908F907F906F90CB
:100D70005F904F903F902F900895FC01D9018C9186
:100D8000828354834383708B67870895CF92DF9269
:100D9000EF92FF920F931F93CF93DF936A018B0122
:100DA000D0E0C0E08C5A9F4F7C01D7018D919C917F
:100DB000DC01ED91FC910084F185E02D1995892BE2
:100DC000A1F0CC15DD0589F0F70180819181DC016E
:100DD000ED91FC910284F385E02D19958A3029F07C
:100DE0002196F80181938F01E0CFCE01DF91CF9161
:100DF0001F910F91FF90EF90DF90CF9008950F9388
:100E00001F93CF93DF93FB010081C02FD0E0FC0143
:100E1000128161E0812F0E946502209741F460E019
:100E2000812FDF91CF911F910F910C943702CF3F0B
:100E3000D10511F461E0F4CFE12FF0E0E256FD4F6F
:100E4000E491E150E23108F0B4C0F0E08827E45DBD
:100E5000F84F8F4F0C94D9103E0747074C075607A1
:100E60006007D9076A0772077A0784078E07980711
:100E7000A707B107D907BB07C507CF0784B58068A7
:100E800084BD07BDDF91CF911F910F91089584B567
:100E9000806284BD08BDF6CF809180008068809319
:100EA0008000D0938900C0938800ECCF80918000AF
:100EB000806280938000D0938B00C0938A00E2CF41
:100EC00080918000886080938000D0938D00C093D3
:100ED0008C00D8CF8091B00080688093B0000093E0
:100EE000B300D0CF8091B00080628093B0000093B7
:100EF000B400C8CF80919000806880939000D09318
:100F00009900C0939800BECF80919000806280933A
:100F10009000D0939B00C0939A00B4CF8091900032
:100F2000886080939000D0939D00C0939C00AACFCE
:100F30008091A00080688093A0008091A0008F7BAA
:100F40008093A000D093A900C093A8009BCF80916C
:100F5000A00080628093A000D093AB00C093AA0051
:100F600091CF8091A00088608093A000D093AD00C5
:100F7000C093AC0087CF80912001806880932001CE
:100F8000D0932901C09328017DCF809120018062F8
:100F900080932001D0932B01C0932A0173CF8091BD
:100FA0002001886080932001D0932D01C0932C01F3
:100FB00069CFC038D1050CF03DCF31CF0F931F93CF
:100FC000CF93DF93EC01FB010081118161E01016EA
:100FD00011060CF060E08B810E9437028D819E81AA
:100FE000019761F461E0101611060CF460E08C8149
:100FF000DF91CF911F910F910C943702DF91CF9128
:101000001F910F910895CF93DF93EC0161E08A81E6
:101010000E94650261E08B810E9465028D819E8144
:10102000019721F461E08C810E94650260E08A8171
:10103000DF91CF910C9437020F931F93CF93DF93DF
:101040001F92CDB7DEB78C01CB01D8016D937C9395
:101050000E940308F80180819181DC01ED91FC91EF
:101060000280F381E02D1982BE016F5F7F4F1995D9
:101070000F90DF91CF911F910F910895CF92DF9242
:10108000EF92FF926B017C0161E08DE00E946502AE
:1010900061E08DE00E943702C701B6010E94BB02E9
:1010A00060E08DE00E943702C701B601FF90EF902B
:1010B000DF90CF900C94BB021F93CF93DF93EC0192
:1010C00088810E940E02182F8A8181110FC0113071
:1010D00069F489810E940E02811106C08B818130E2
:1010E00029F48FEF8B8302C0813099F01A838B81B2
:1010F0008130A1F48C819D81AE81BF810196A11DBB
:10110000B11D8C839D83AE83BF83DF91CF911F91EF
:1011100008958B818F3F51F71B83E8CF8C819D8190
:10112000AE81BF810197A109B109EBCF89E195E0BB
:101130000C945C0881E195E00C945C080E943D14DD
:10114000FB0101900020E9F73197AF01461B570BD7
:10115000DC01ED91FC910280F381E02D19948F92D6
:101160009F92AF92BF92EF92FF920F931F93CF93F4
:10117000DF93CDB7DEB7A1970FB6F894DEBF0FBEF1
:10118000CDBF7C01FA01CB0119A2223008F42AE07C
:101190008E010F5D1F4F822E912CB12CA12CBF010F
:1011A000A50194010E94B710F901CA016A300CF53B
:1011B000605DD8016E938D01232B242B252B79F7AD
:1011C00090E080E0109721F0BD01C7010E94A008C7
:1011D000A1960FB6F894DEBF0FBECDBFDF91CF91C1
:1011E0001F910F91FF90EF90BF90AF909F908F90C5
:1011F0000895695CDECF8F929F92AF92BF92CF929B
:10120000DF92EF92FF920F931F93CF93DF937C01B6
:10121000EB016C0182E0C80ED11C4701E5E08E0EA7
:10122000911C10E000E0F60141916F0150E070E088
:1012300060E02AE0CE010E94AF085C01E881F981FC
:101240000190F081E02D6EE2CE0119958A0D9B1D73
:10125000080F191FC814D90431F7F701458150E070
:1012600070E060E02AE0CE010E94AF08800F911F7D
:10127000DF91CF911F910F91FF90EF90DF90CF9072
:10128000BF90AF909F908F900895CF93DF93BC0154
:1012900086E493E00E94A008EC016EE972E086E427
:1012A00093E00E94A0088C0F9D1FDF91CF910895BD
:1012B000CF93DF93EC01CC5ADF4F88819981DC0119
:1012C000ED91FC910280F381E02D19956EE972E0B9
:1012D00088819981DF91CF910C94A0084F925F9201
:1012E0006F927F92BF92CF92DF92EF92FF920F9315
:1012F0001F93CF93DF93CDB7DEB7DC01CDB6DEB65B
:101300001F96ED91FC915097138617968D919C91A5
:10131000189795878487118A108A86859785019604
:1013200097878687CF014496938B828B28E0FC01B8
:1013300011922A95E9F712965C9112971F960D91DA
:101340001C91509730E020E040E0541779F1F8010B
:10135000808991898830910528F51396ED91FC914B
:101360001497E20FF31FED59FF4F0190F081E02D2C
:101370000190F081E02D408C518C628C738CF801CF
:10138000E288F388BC016F5F7F4F718B608B880FA1
:10139000991F880F991FF701E80FF91F40825182AA
:1013A000628273824F5F2B593F4FCFCFEDB6FEB6AF
:1013B0008DB79EB787970FB6F8949EBF0FBE8DBFAF
:1013C0006DB77EB76F5F7F4FD8011B968C911B97CF
:1013D000EDB7FEB781831D968C91DB0111968C933E
:1013E0001197F801848512968C931297878513962E
:1013F0008C931397868514968C93149781891596F0
:101400008C931597808916968C93B12C47E050E009
:101410008B2D90E0D80150962D913C9151978217D9
:10142000930748F5880F991F880F991F52962D91A1
:101430003C91820F931FFC01408051806280738039
:101440009B01240F351FBB2777FCBA95A72D962D3E
:10145000852DFC01EE27472C552466247724E429AA
:10146000F52984E0D90101900D928A95E1F74C5F4E
:101470005F4FB394CDCFED91FC910190F081E02DC1
:10148000C80119950FB6F894FEBE0FBEEDBEEDB7BC
:10149000FEB7B7970FB6F894FEBF0FBEEDBF8DB77E
:1014A0009EB701967C01D801ED91FC910280F381F9
:1014B000E02D47E250E0BC01C8011995F701808199
:1014C000D80112968C93129721818281082E000CEC
:1014D000990B922B14969C938E931397238184815E
:1014E000082E000C990B922B16969C938E931597B1
:1014F00025818681082E000C990B922B18969C93BF
:101500008E931797880F991F880F991F809781F5E1
:10151000B7E0EB0EF11CB12C2B2D30E0F8018781E8
:1015200090852817390720F5D7014D915D916D9170
:101530007D917D01220F331F220F331FA185B285BC
:101540002A0F3B1FBB2777FDBA95A72F962F852F14
:10155000FC01EE27472F552766277727E42BF52B2D
:1015600084E0D90101900D928A95E1F7B394D4CF2C
:101570000FB6F894DEBE0FBECDBEDF91CF911F91A6
:101580000F91FF90EF90DF90CF90BF907F906F9082
:101590005F904F9008951F920F920FB60F921124F3
:1015A0002F933F938F939F93AF93BF938091F702B5
:1015B0009091F802A091F902B091FA023091F602EE
:1015C00023E0230F2D3758F50196A11DB11D20935F
:1015D000F6028093F7029093F802A093F902B09379
:1015E000FA028091FB029091FC02A091FD02B09161
:1015F000FE020196A11DB11D8093FB029093FC0297
:10160000A093FD02B093FE02BF91AF919F918F9185
:101610003F912F910F900FBE0F901F90189526E8C5
:10162000230F0296A11DB11DD2CF1F920F920FB6AC
:101630000F9211240BB60F922F933F934F935F930A
:101640006F937F938F939F93AF93BF93EF93FF938A
:10165000E0910E02F0910F021995FF91EF91BF9169
:10166000AF919F918F917F916F915F914F913F913A
:101670002F910F900BBE0F900FBE0F901F901895DB
:101680001F920F920FB60F9211240BB60F922F9349
:101690003F934F935F936F937F938F939F93AF93FA
:1016A000BF93EF93FF93E0910C02F0910D02199517
:1016B000FF91EF91BF91AF919F918F917F916F912A
:1016C0005F914F913F912F910F900BBE0F900FBEE6
:1016D0000F901F9018951F920F920FB60F92112422
:1016E0000BB60F922F933F934F935F936F937F931C
:1016F0008F939F93AF93BF93EF93FF93E091020279
:10170000F09103021995FF91EF91BF91AF919F91D5
:101710008F917F916F915F914F913F912F910F909A
:101720000BBE0F900FBE0F901F9018951F920F9237
:101730000FB60F9211240BB60F922F933F934F9336
:101740005F936F937F938F939F93AF93BF93EF9329
:10175000FF93E0910002F09101021995FF91EF9142
:10176000BF91AF919F918F917F916F915F914F91B9
:101770003F912F910F900BBE0F900FBE0F901F90B7
:1017800018951F920F920FB60F9211240BB60F925D
:101790002F933F934F935F936F937F938F939F9379
:1017A000AF93BF93EF93FF93E0910A02F0910B0286
:1017B0001995FF91EF91BF91AF919F918F917F917B
:1017C0006F915F914F913F912F910F900BBE0F90B2
:1017D0000FBE0F901F9018951F920F920FB60F9289
:1017E00011240BB60F922F933F934F935F936F93F8
:1017F0007F938F939F93AF93BF93EF93FF93E0916A
:101800000802F09109021995FF91EF91BF91AF91F4
:101810009F918F917F916F915F914F913F912F9108
:101820000F900BBE0F900FBE0F901F9018951F9238
:101830000F920FB60F9211240BB60F922F933F9376
:101840004F935F936F937F938F939F93AF93BF93C8
:10185000EF93FF93E0910602F09107021995FF9133
:10186000EF91BF91AF919F918F917F916F915F9118
:101870004F913F912F910F900BBE0F900FBE0F9085
:101880001F9018951F920F920FB60F9211240BB64E
:101890000F922F933F934F935F936F937F938F9309
:1018A0009F93AF93BF93EF93FF93E0910402F09166
:1018B00005021995FF91EF91BF91AF919F918F9183
:1018C0007F916F915F914F913F912F910F900BBE40
:1018D0000F900FBE0F901F9018951F920F920FB68A
:1018E0000F9211240BB60F922F933F934F935F9358
:1018F0006F937F938F939F93AF93BF93EF93FF93D8
:1019000086E493E00E946F03FF91EF91BF91AF9146
:101910009F918F917F916F915F914F913F912F9107
:101920000F900BBE0F900FBE0F901F9018951F9237
:101930000F920FB60F9211240BB60F922F938F9325
:101940009F93EF93FF93E0915603F09157038081AB
:10195000E0915C03F0915D0382FD1DC09081809158
:101960005F038F5F8F7320916003821741F0E091D6
:101970005F03F0E0EA5BFC4F958F80935F03FF917C
:10198000EF919F918F912F910F900BBE0F900FBEF3
:101990000F901F9018958081F2CF2F923F924F9217
:1019A0005F926F927F928F929F92AF92BF92CF92EF
:1019B000DF92EF92FF920F931F93CF93DF93CDB7F8
:1019C000DEB7C455D1090FB6F894DEBF0FBECDBF48
:1019D00006E413E0D80113961C921E92129788EE2B
:1019E00093E0A0E0B0E0F80184839583A683B783F9
:1019F00084E292E09183808385EC90E095878487F0
:101A000084EC90E09787868780EC282E312C318AF1
:101A1000208A81EC90E0938B828B82EC90E0958B16
:101A2000848B86EC90E0978B868B118E128E138EB2
:101A3000148EEFEFF2E088E492E0918380831282CB
:101A4000138214821582E5E0F3E091838083128291
:101A5000138214821582EBE0F3E09183808312827B
:101A6000138214821582E7E1F3E09183808312826E
:101A7000138214821582E1E1F3E091838083128264
:101A8000138214821582EDE1F3E091838083128248
:101A9000138214821582E3E2F3E091838083128241
:101AA000138214821582E9E2F3E09183808312822B
:101AB000138214821582EFE2F3E091838083128215
:101AC000138214821582E1E2F5E091838083128211
:101AD000138214821582E9E1F5E085E1808383E1D8
:101AE0008183128291E09383148215821682178279
:101AF000E1E1F5E080838183128293831482158271
:101B00001682178285E0E6E1F2E0DE01119601908F
:101B10000D928A95E1F78EE392E090930B05809306
:101B20000A0525E0FE013196ACE0B5E001900D928A
:101B30002A95E1F725E0EBE1F2E0DE011196019054
:101B40000D922A95E1F7909304058093030585E0B3
:101B5000FE013196A5E0B5E001900D928A95E1F77E
:101B600084E2EAE7F2E0DE011D9601900D928A958B
:101B7000E1F784E2E6E5F2E0DE01D19601900D9214
:101B80008A95E1F7E9E3F4E012821482138296E683
:101B9000492E542C96E4692E90E4792E49825A827B
:101BA0006B827C8229E9822E2BEB922E26E9A22ED3
:101BB0002CE3B22E8D829E82AF82B88632E3C32E92
:101BC000D12CE12CF12CC986DA86EB86FC8684E5E3
:101BD000FE013196A0E4B4E001900D928A95E1F700
:101BE0001092940410929504109296041092970407
:101BF000109299041092980482E090E00E941813C9
:101C00002CE434E0DC012D933C9390939B0480936F
:101C10009A0482E090E00E94181320E734E0FC016F
:101C20003183208390939D0480939C0484E2EAE7AF
:101C3000F2E0DE011D9601900D928A95E1F784E2B3
:101C4000E6E5F2E0DE01D19601900D928A95E1F78A
:101C50001092A0041092A2041092A10449825A8208
:101C60006B827C828D829E82AF82B886C986DA863C
:101C7000EB86FC8684E5FE013196A5EAB4E001908E
:101C80000D928A95E1F71092F9041092FA041092DD
:101C9000FB041092FC041092FE041092FD0482E0FA
:101CA00090E00E94181321EB34E0DC012D933C936B
:101CB000909300058093FF0482E090E00E94181347
:101CC00025ED34E0FC01318320839093020580935D
:101CD0000105E3EEF3E0138615861486118A108A57
:101CE0001786168627EF33E0338B228B47E154E0CB
:101CF0005287418788E0D901982F1D929A95E9F77C
:101D0000DA011D928A95E9F786E392E09183808358
:101D1000109338040093370482E0F1018083D801E6
:101D20001C96ED91FC911D9710821E96ED91FC91F1
:101D30001F978FEC808358961C9258975496ED917C
:101D4000FC91559786E080835296ED91FC915397D4
:101D50008081806180835296ED91FC9153978081C0
:101D6000886080835296ED91FC91539780818068C2
:101D700080835296ED91FC9180818F7D8083E5E395
:101D8000F3E0128288EE93E0968785878EE492E0F6
:101D900091838083CC5ADF4F0FB6F894DEBF0FBE1D
:101DA000CDBFDF91CF911F910F91FF90EF90DF900A
:101DB000CF90BF90AF909F908F907F906F905F90EB
:101DC0004F903F902F900895CF93DF9300D000D095
:101DD000CDB7DEB7789484B5826084BD84B5816068
:101DE00084BD85B5826085BD85B5816085BD8091E6
:101DF0006E00816080936E0010928100809181005E
:101E00008260809381008091810081608093810055
:101E1000809180008160809380008091B100846017
:101E20008093B1008091B00081608093B000809178
:101E300091008260809391008091910081608093F5
:101E40009100809190008160809390008091A1002A
:101E500082608093A1008091A10081608093A100A5
:101E60008091A00081608093A00080912101826018
:101E700080932101809121018160809321018091D3
:101E8000200181608093200180917A00846080939A
:101E90007A0080917A00826080937A0080917A0043
:101EA000816080937A0080917A00806880937A00C4
:101EB0001092C1006AE075E089E394E00E941C087A
:101EC00089E195E090933F0480933E0462E0809125
:101ED00019050E94650262E080911A050E94650260
:101EE00010921D0510921E0510921F0510922005DC
:101EF00063E075E08EE994E00E941C0881E195E0C2
:101F00009093A4048093A30462E0809111050E9441
:101F1000650262E0809112050E946502109215052B
:101F200010921605109217051092180586E998E090
:101F3000909301028093000280916A008C7F8160FF
:101F400080936A00EC9A8AE998E090930502809366
:101F50000402809169008C7F816080936900E89A17
:101F600082E08093370389E394E090933903809370
:101F7000380383EE93E090934503809344036EE926
:101F800072E086E493E00E94A00861EA72E086E4D1
:101F900093E00E94A0086CEA72E086E493E00E945D
:101FA000A00864EC72E086E493E00E94A00887EC4D
:101FB00092E00E9445096DEC72E086E493E00E9495
:101FC000A00867EE72E086E493E00E94A00889ED25
:101FD00092E00E94450962EE72E086E493E00E947E
:101FE000A00889EE92E00E94450960ED77E080E06C
:101FF00090E00E943E0835E6332E01E010E042E317
:10200000442E512C612C712C0E94EE024B015C017C
:102010000E94EE0269837A838B839C8385E393E03D
:102020000E9421056C01F12CE12CC0923E03D0925C
:102030003F03E0924003F09241038091420390916C
:102040004303C80ED91EE11CF11C0E94EE026C1560
:102050007D058E059F0548F585E393E00E949E056A
:1020600085E393E00E946E090E94EE0229813A8185
:10207000621B730B70933D0360933C030E94EE025E
:10208000681979098A099B099695879577956795C7
:10209000A3019201261B370B480B590BCA01B9014A
:1020A0000E943E080E94FE03AFCFD12C80913703DF
:1020B000D816B0F6E0903803F0903903D39CE00CCA
:1020C000F11C11249701215A3F4F3E832D83D901E2
:1020D0001D921C92F701EF59FF4F0190F081E02D06
:1020E0000190F081E02D148A158A168A178A108EC5
:1020F000118E128E138ED7011596ED91FC911482DC
:102100001582168217820E94EE02F701E55AFF4FF0
:102110006083718382839383ED81FE8111830083C9
:10212000F701ED59FF4F0190F081E02D0190F08112
:10213000E02D148A158A168A178AD394B7CF809116
:10214000FF04909100050E94B413809101059091C5
:1021500002050E94B41380919A0490919B040E94FE
:10216000B41380919C0490919D040C94B413A1E24B
:102170001A2EAA1BBB1BFD010DC0AA1FBB1FEE1F01
:10218000FF1FA217B307E407F50720F0A21BB30B4C
:10219000E40BF50B661F771F881F991F1A9469F7C8
:1021A00060957095809590959B01AC01BD01CF0124
:1021B0000895EE0FFF1F881F8BBF0790F691E02D4B
:1021C00019945058BB27AA270E94F9100C946C123E
:1021D0000E945E1238F00E94651220F039F49F3F91
:1021E00019F426F40C945B120EF4E095E7FB0C94C2
:1021F0005512E92F0E947D1258F3BA176207730730
:102200008407950720F079F4A6F50C949F120EF43C
:10221000E0950B2EBA2FA02D0B01B90190010C01F6
:10222000CA01A0011124FF27591B99F0593F50F40E
:10223000503E68F11A16F040A22F232F342F442766
:10224000585FF3CF469537952795A795F04053955E
:10225000C9F77EF41F16BA0B620B730B840BBAF02E
:102260009150A1F0FF0FBB1F661F771F881FC2F799
:102270000EC0BA0F621F731F841F48F487957795AD
:102280006795B795F7959E3F08F0B0CF9395880F67
:1022900008F09927EE0F9795879508950E943112BF
:1022A00008F481E008950E9467110C946C120E945A
:1022B000651258F00E945E1240F029F45F3F29F049
:1022C0000C94551251110C94A0120C945B120E94A4
:1022D0007D1268F39923B1F3552391F3951B550BA8
:1022E000BB27AA2762177307840738F09F5F5F4FE9
:1022F000220F331F441FAA1FA9F335D00E2E3AF028
:10230000E0E832D091505040E695001CCAF72BD03F
:10231000FE2F29D0660F771F881FBB1F2617370790
:102320004807AB07B0E809F0BB0B802DBF01FF27C2
:1023300093585F4F3AF09E3F510578F00C94551238
:102340000C94A0125F3FE4F3983ED4F38695779502
:102350006795B795F7959F5FC9F7880F911D96957B
:10236000879597F90895E1E0660F771F881FBB1FD7
:10237000621773078407BA0720F0621B730B840B84
:10238000BA0BEE1F88F7E09508950E94851288F039
:102390009F5798F0B92F9927B751B0F0E1F0660F29
:1023A000771F881F991F1AF0BA95C9F714C0B1306A
:1023B00091F00E949F12B1E008950C949F12672F34
:1023C000782F8827B85F39F0B93FCCF38695779599
:1023D0006795B395D9F73EF4909580957095619582
:1023E0007F4F8F4F9F4F0895E89409C097FB3EF4AD
:1023F00090958095709561957F4F8F4F9F4F992352
:10240000A9F0F92F96E9BB279395F69587957795CF
:102410006795B795F111F8CFFAF4BB0F11F460FF8F
:102420001BC06F5F7F4F8F4F9F4F16C0882311F0E7
:1024300096E911C0772321F09EE8872F762F05C0FB
:10244000662371F096E8862F70E060E02AF09A9596
:10245000660F771F881FDAF7880F9695879597F98B
:102460000895990F0008550FAA0BE0E8FEEF161625
:102470001706E807F907C0F012161306E407F50778
:1024800098F0621B730B840B950B39F40A2661F0EC
:10249000232B242B252B21F408950A2609F4A1408F
:1024A000A6958FEF811D811D089597F99F6780E89C
:1024B00070E060E008959FEF80EC089500240A9496
:1024C0001616170618060906089500240A9412160F
:1024D0001306140605060895092E0394000C11F442
:1024E000882352F0BB0F40F4BF2B11F460FF04C0EF
:1024F0006F5F7F4F8F4F9F4F089557FD9058440F48
:10250000551F59F05F3F71F04795880F97FB991F52
:1025100061F09F3F79F0879508951216130614060F
:10252000551FF2CF4695F1DF08C01616170618069C
:10253000991FF1CF86957105610508940895E89477
:10254000BB2766277727CB0197F908950E943112A0
:1025500008F48FEF08950E94BE120C946C120E9432
:102560005E1238F00E94651220F0952311F00C9451
:1025700055120C945B1211240C94A0120E947D122F
:1025800070F3959FC1F3950F50E0551F629FF001C6
:10259000729FBB27F00DB11D639FAA27F00DB11DDF
:1025A000AA1F649F6627B00DA11D661F829F222768
:1025B000B00DA11D621F739FB00DA11D621F839FEF
:1025C000A00D611D221F749F3327A00D611D231FC5
:1025D000849F600D211D822F762F6A2F11249F5713
:1025E00050409AF0F1F088234AF0EE0FFF1FBB1F16
:1025F000661F771F881F91505040A9F79E3F5105D5
:1026000080F00C9455120C94A0125F3FE4F3983EB6
:10261000D4F3869577956795B795F795E7959F5F7E
:10262000C1F7FE2B880F911D9695879597F9089510
:102630000F931F93CF93DF938230910510F482E0C4
:1026400090E0E0912905F0912A0530E020E0B0E02B
:10265000A0E0309799F42115310509F44AC0281BF0
:10266000390B24303105D8F58A819B8161157105BC
:1026700089F1FB0193838283FE0111C04081518166
:102680000281138148175907E0F04817590799F458
:10269000109761F012960C93129713961C93329632
:1026A000CF01DF91CF911F910F91089500932905DC
:1026B00010932A05F4CF2115310551F04217530725
:1026C00038F0A901DB019A01BD01DF01F801C1CF9A
:1026D000EF01F9CF90932A0580932905CDCFFE0114
:1026E000E20FF31F8193919322503109398328839C
:1026F000D7CF2091270530912805232B41F4209135
:10270000120230911302309328052093270520915F
:102710001002309111022115310541F42DB73EB759
:102720004091140250911502241B350BE0912705AE
:10273000F0912805E217F307A0F42E1B3F0B281792
:10274000390778F0AC014E5F5F4F2417350748F02A
:102750004E0F5F1F50932805409327058193919357
:102760009FCFF0E0E0E09CCFCF93DF930097E9F0BC
:10277000FC01329713821282A0912905B0912A059B
:10278000ED0130E020E01097A1F420813181820F2B
:10279000931F20912705309128052817390709F044
:1027A00061C0F0932805E0932705DF91CF9108954C
:1027B000EA01CE17DF07E8F54A815B819E014115EA
:1027C0005105B1F7E901FB83EA8349915991C40F9F
:1027D000D51FEC17FD0761F4808191810296840F6B
:1027E000951FE90199838883828193819B838A83E2
:1027F000F0E0E0E012968D919C9113970097B9F567
:102800002D913C911197CD010296820F931F20913B
:102810002705309128052817390739F6309751F5E3
:1028200010922A0510922905B0932805A093270538
:10283000BCCFD383C28340815181840F951FC817B9
:10284000D90761F44E5F5F4F88819981480F591F06
:10285000518340838A819B81938382832115310533
:1028600009F0B0CFF0932A05E09329059ECFFD0132
:10287000DC01C0CF13821282D7CF81E090E0F894C0
:102880000C94421411E0C3E7D1E000E006C0802FB1
:10289000FE010E94D9102196011DC437D10780E0A6
:0828A0000807A9F7F894FFCF27
:1028A800FA02FA02FA02FA02FA02FA02FA02FA0240
:1028B80000002B0580000503020100060407010043
:1028C800000000009103FB022803DE0359033703CD
:1028D8004B03000000005809C6060000000003086A
:1028E800FF06DE0700000000FB0800000000BD0630
:1028F8009E0521056E099A99993ECDCCCC3DCDCC4B
:102908004C3D000000000000000000000000000036
:1029180000002184A4C22184A4429A99993E9A99DC
:10292800993ECDCCCC3D0000000000000000000026
:102938000000000000002184A4C22184A4420D0AE2
:10294800006669726D776172653A2000696E636C22
:102958007564652F7574696C732F76657273696F0A
:102968006E2E6800207600302E302E3100466562CB
:1029780020313820323032320031313A31383A356C
:1029880038006E616D653A2000746D635F6D656730
:062998006132353630000B
:00000001FF
