:100000000C947F010C9476090C944B090C942009F4
:100010000C94F5080C94CA080C949F080C9474086E
:100020000C9449080C94B0010C94B0010C94B001EC
:100030000C94B0010C94B0010C94B0010C94B0017C
:100040000C94B0010C94B0010C94B0010C94B0016C
:100050000C94B0010C94B0010C94B0010C94FF0707
:100060000C94B0010C94CB090C94A1090C94B00130
:100070000C94B0010C94B0010C94B0010C94B0013C
:100080000C94B0010C94B0010C94B0010C94B0012C
:100090000C94B0010C94B0010C94B0010C94B0011C
:1000A0000C94B0010C94B0010C94B0010C94B0010C
:1000B0000C94B0010C94B0010C94B0010C94B001FC
:1000C0000C94B0010C94B0010C94B0010C94B001EC
:1000D0000C94B0010C94B0010C94B0010C94B001DC
:1000E0000C94B001F201F501E401E801EE012C02EB
:1000F000F901FD01030207020B02110215021902A8
:100100002C021F0223022702130318031D032703D7
:100110003103AA033B0343034B0355035F03690306
:1001200078038203AA038C039603A0030C944A0469
:100130000C9427030C94AA030C9407020C943B0321
:100140000C9482030C9403020C941F020C94A003E1
:100150000C948C030C94EE010C9411020C94430348
:100160000C944B030C94B3040C941B040C943103B7
:100170000C9459040C9400050C9496030C94F20111
:100180000C941D030C945F030C94F5010C946D0406
:100190000C9427020C9423020C9415020C947B04FB
:1001A0000C946C060C9419020C94E8010C941C0439
:1001B0000C94E4010C94FD010C9469030C942C0242
:1001C0000C94F9010C9418030C9478030C94010A14
:1001D0000C9413030C9455030C940B0200002100A3
:1001E000240027002A002D00300033000101000008
:1001F000040107010A0100002200250028002B004D
:100200002E003100340002010000050108010B013D
:10021000000020002300260029002C002F003200BF
:100220000001000003010601090105050505070598
:1002300008080808020202020A0A08080404040462
:10024000010101010101010103030303030303038E
:10025000040707070C0C0C0C0C0C0C0C020202021D
:1002600006060606060606060B0B0B0B0B0B0B0B06
:1002700001021020200808102040102040800201B8
:10028000020108040201010204081020408080409D
:10029000201008040201800402018040201008049C
:1002A000020108040201010204081020408001023A
:1002B00004081020408000000A0B02090C0D0E08F3
:1002C000070304010000000000000000000000001F
:1002D000000000000000000000000000000000001E
:1002E00000001211100000000000000000000000DB
:1002F000000000000000000000000000010A1124BE
:100300001FBECFEFD1E2DEBFCDBF00E00CBF12E0D9
:10031000A0E0B2E0E2E8FFE100E00BBF02C007901E
:100320000D92AE3DB107D9F723E0AEEDB2E001C0CA
:100330001D92AD3FB207E1F711E0CFE7D1E000E059
:1003400006C021970109802FFE010E94760DCE374D
:10035000D10780E00807A9F70E94B90A0C94BF0FE3
:100360000C940000E8E8F3E0128AA389B48954965B
:100370006D937D938D939C93579758961D921D92E4
:100380001D921C925B9712861386148615862FB7D2
:10039000F8948091E7029091E802A091E902B0916F
:1003A000EA022FBF86879787A08BB18B089590E0D4
:1003B000FC013197E231F10508F04EC08827EE5874
:1003C000FF4F8F4F0C94760D809180008F7703C084
:1003D000809180008F7D80938000089580918000BF
:1003E000877FF9CF84B58F7702C084B58F7D84BDB8
:1003F00008958091B0008F7703C08091B0008F7D09
:100400008093B0000895809190008F7707C080910D
:1004100090008F7D03C080919000877F8093900033
:1004200008958091A0008F7707C08091A0008F7DF4
:1004300003C08091A000877F8093A00008958091E1
:1004400020018F7707C0809120018F7D03C08091AC
:100450002001877F809320010895CF93DF93282F79
:1004600030E0F901EA54FD4F8491F901E059FD4F64
:10047000D491F901E65DFD4FC491CC2391F0811137
:100480000E94D701EC2FF0E0EE0FFF1FE05FFD4F61
:10049000A591B491EC91ED2381E090E021F480E00E
:1004A00002C080E090E0DF91CF9108951F93CF9339
:1004B000DF93282F30E0F901EA54FD4F8491F901D0
:1004C000E059FD4FD491F901E65DFD4FC491CC2375
:1004D000C1F0162F81110E94D701EC2FF0E0EE0F32
:1004E000FF1FEA50FE4FA591B4919FB7F8941111E8
:1004F00004C08C91D095D82302C0EC91DE2BDC9304
:100500009FBFDF91CF911F91089561E0811101C0DC
:1005100060E080918B038617C1F060938B03E091BC
:100520008803F091890381810E945602E09188033B
:10053000F09189038381813041F461E080918B03E4
:10054000811160E082810C9456020895CF93DF936D
:1005500090E0FC01E059FD4F2491FC01E65DFD4F68
:100560008491882361F190E0880F991FFC01E45287
:10057000FE4FC591D491FC01EA50FE4FA591B49174
:10058000611109C09FB7F8948881209582238883E0
:10059000EC912E230BC0623061F49FB7F8948881F0
:1005A000322F309583238883EC912E2B2C939FBF81
:1005B00006C08FB7F894E8812E2B28838FBFDF9178
:1005C000CF9108950F931F93CF93DF9390918A0358
:1005D000981709F4CCC0182F80938A03C82FD0E055
:1005E000E0918803F0918903008161E0802F0E94EF
:1005F000A602209709F4B1C0CF3FD10509F4AFC0DE
:10060000E02FF0E0EA54FD4FE4914E2F50E0FA0164
:100610003197E231F10508F09DC08827EC57FF4F74
:100620008F4F0C94760D84B5806884BD17BD9FC034
:1006300084B5806284BD18BD9AC0809180008068B6
:1006400080938000D0938900C093880090C08091EF
:100650008000806280938000D0938B00C0938A00DA
:1006600086C080918000886080938000D0938D0048
:10067000C0938C007CC08091B00080688093B000F3
:100680001093B30074C08091B00080628093B0007A
:100690001093B4006CC080919000806880939000AB
:1006A000D0939900C093980062C0809190008062BE
:1006B00080939000D0939B00C0939A0058C0809183
:1006C0009000886080939000D0939D00C0939C0020
:1006D0004EC08091A00080688093A0008091A0000F
:1006E0008F7B8093A000D093A900C093A8003FC047
:1006F0008091A00080628093A000D093AB00C09353
:10070000AA0035C08091A00088608093A000D0939B
:10071000AD00C093AC002BC0809120018068809315
:100720002001D0932901C093280121C0809120018C
:10073000806280932001D0932B01C0932A0117C0BF
:1007400080912001886080932001D0932D01C09377
:100750002C010DC0C038D10514F460E001C061E087
:10076000802FDF91CF911F910F910C945602DF9152
:10077000CF911F910F9108953FB7F8948091E302B4
:100780009091E402A091E502B091E60226B5A89B03
:1007900005C02F3F19F00196A11DB11D3FBFBA2F13
:1007A000A92F982F8827820F911DA11DB11DBC0173
:1007B000CD0142E0660F771F881F991F4A95D1F738
:1007C00008958F929F92AF92BF92CF92DF92EF9255
:1007D000FF926B017C010E94BC034B015C01C114C0
:1007E000D104E104F104F1F00E94BC03DC01CB016F
:1007F00088199909AA09BB09883E9340A105B1054A
:1008000070F321E0C21AD108E108F10888EE880EE1
:1008100083E0981EA11CB11CC114D104E104F104B1
:1008200019F7DDCFFF90EF90DF90CF90BF90AF90A2
:100830009F908F9008950895CF92DF92EF92FF924C
:100840000F931F93CF93DF936C017A018B01C0E06C
:10085000D0E0CE15DF0581F0D8016D918D01D60174
:10086000ED91FC910190F081E02DC6011995892B45
:1008700011F02196EECF7E01C701DF91CF911F913C
:100880000F91FF90EF90DF90CF900895089580E052
:1008900090E00895FC01538D448D252F30E0842F86
:1008A00090E0821B930B541710F0CF960895019798
:1008B0000895FC01918D828D981761F0828DDF0182
:1008C000A80FB11D5D968C91928D9F5F9F73928F43
:1008D00090E008958FEF9FEF0895FC01918D828D38
:1008E000981731F0828DE80FF11D858D90E0089505
:1008F0008FEF9FEF0895FC01918D228D892F90E05D
:10090000805C9F4F821B91098F73992708958BEE0E
:1009100092E00E947B0421E0892B09F420E0822FE1
:100920000895FC01848DDF01A80FB11DA35ABF4FAC
:100930002C91848D90E001968F739927848FA689DE
:10094000B7892C93A089B1898C91837080648C9332
:10095000938D848D981306C00288F389E02D8081E1
:100960008F7D80830895EF92FF920F931F93CF9313
:10097000DF93EC0181E0888F9B8D8C8D981305C0EF
:10098000E889F989808185FD26C0F62E0B8D10E05F
:100990000F5F1F4F0F731127E02E8C8DE8120CC0D4
:1009A0000FB607FCFACFE889F989808185FFF5CF7A
:1009B000CE010E949104F1CF8B8DFE01E80FF11D55
:1009C000E35AFF4FF0829FB7F8940B8FEA89FB89B7
:1009D000808180620AC09FB7F894EE89FF896083A6
:1009E000E889F98980818370806480839FBF81E07A
:1009F00090E0DF91CF911F910F91FF90EF900895BC
:100A0000CF93DF93EC01888D8823C9F0EA89FB89B5
:100A1000808185FD05C0A889B9898C9186FD0FC0AC
:100A20000FB607FCF5CF808185FFF2CFA889B98981
:100A30008C9185FFEDCFCE010E949104E7CFDF912D
:100A4000CF91089580E090E0892B21F00E948704E7
:100A5000811125C080E090E0892B41F080E090E09A
:100A6000892B21F00E94000081111CC080E090E0E1
:100A7000892B41F080E090E0892B21F00E9400005A
:100A8000811113C080E090E0892BA1F080E090E01C
:100A9000892B81F00E94000081110AC008950E94F4
:100AA0000000D8CF0E940000E1CF0E940000EACFF2
:100AB0000C94000008952F923F924F925F926F9294
:100AC0007F928F929F92AF92BF92CF92DF92EF92DE
:100AD000FF920F931F93CF93DF9300D000D0CDB739
:100AE000DEB72A013B01FC010190F081E02DFE837D
:100AF000ED83C08CD18CE28CF38CA70196016489C4
:100B00007589868997890E947E0D4B015C01ED8174
:100B1000FE812089318942895389C701B6010E942B
:100B20007E0DA30192010E94F00D9B01AC01505873
:100B300029833A834B835C83ED81FE81808A918A8D
:100B4000A28AB38A2481358146815781C501B401C7
:100B50000E94480FA30192010E94480FED81FE817F
:100B600024853585468557850E947F0D2B013C01E4
:100B7000ED81FE81648775878687978710A101A123
:100B800032A023A0212F302F432D522D0E94430F3E
:100B900018165CF4812F902FA32DB22DED81FE81CC
:100BA00084879587A687B78714C0ED81FE81C48CA2
:100BB000D58CE68CF78CA7019601C301B2010E9487
:100BC000EB0D87FF06C0ED81FE81C486D586E686E3
:100BD000F786ED81FE812081318142815381C501FB
:100BE000B4010E94480FED81FE812485358546853C
:100BF00057850E947F0D4B015C01ED81FE812085B0
:100C000031854285538569817A818B819C810E94DF
:100C1000480F9B01AC01C501B4010E947F0D6B011F
:100C20007C019B01AC01612F702F832D922D0E94BE
:100C3000EB0D87FD14C0ED81FE81148D058D368C82
:100C4000278C212F302F432D522DB601C7010E9432
:100C5000EB0D87FD04C01C2D0D2D3E2C2F2C612F7C
:100C6000702F832D922D26960FB6F894DEBF0FBEFF
:100C7000CDBFDF91CF911F910F91FF90EF90DF904B
:100C8000CF90BF90AF909F908F907F906F905F902C
:100C90004F903F902F900895CF93DF93EC01E88120
:100CA000F98161E080810E94A602E881F98161E01A
:100CB00081810E94A602E881F9818381813021F43B
:100CC00061E082810E94A602E881F98160E0808172
:100CD000DF91CF910C945602CF93E0918E03F09167
:100CE0008F0380810E942D02C82F80919003811173
:100CF00012C0C13081F4E0918E03F0918F038181A5
:100D00000E942D0281112EC080919103813019F42F
:100D10008FEF80939103C093900380919103813072
:100D200061F48091920390919303A0919403B09108
:100D300095030196A11DB11D0BC080919203909166
:100D40009303A0919403B09195030197A109B10970
:100D50008093920390939303A0939403B09395038D
:100D6000CF9108958130B9F6809191038F3F99F624
:100D7000C0939103D0CF009769F0FC01019000204F
:100D8000E9F73197AF01481B590BBC018BEE92E09C
:100D90000C941C0480E090E008952F923F924F92B3
:100DA0005F926F927F928F929F92AF92BF92CF92FB
:100DB000DF92EF92FF920F931F93CF93DF93CDB704
:100DC000DEB7A4970FB6F894DEBF0FBECDBF4B01C0
:100DD0005C01F42E9B01AC010E94B50F882319F031
:100DE00084E792E027C024013501E89477F82FEFDB
:100DF0003FEF4FE75FE7C301B2010E94B50F8111DA
:100E00000DC02FEF3FEF4FE75FE7C301B2010E9434
:100E1000EB0D18161CF488E792E00CC02FEF3FEFA3
:100E20004FE75FE4C501B4010E94430F18162CF48C
:100E30008CE792E00E94BB06B8C02FEF3FEF4FE770
:100E40005FECC501B4010E94EB0D87FDF1CF20E0FE
:100E500030E0A901C501B4010E94EB0D87FF0BC072
:100E60006DE28BEE92E00E94B3043C01B7FAB094BD
:100E7000B7F8B09402C0612C712C10E060E070E013
:100E800080E09FE3F11641F020E030E040E251E4E1
:100E90000E94F00D1F5FF6CFA50194010E947F0D07
:100EA0004B015C010E94620E6AA3C72ED82EE92E68
:100EB00019A2262F372F482F592F8E010F5D1F4F54
:100EC0000BA31CA39AE0292E312C412C512CCA01D2
:100ED000B901A20191010E94540D605DF801629375
:100EE0008F01211531054105510589F7CF010E9478
:100EF000BB068301080F191FFF2009F455C06AA122
:100F00007C2D8D2D9E2D0E94910E9B01AC01C50163
:100F1000B4010E947E0D4B015C016EE28BEE92E00B
:100F20000E94B304080F191F8AE0282E312C412C8F
:100F3000512C20E030E040E251E4C501B4010E94B0
:100F4000480F4B015C010E94620E9B0140E050E0A3
:100F500019A2CBA0DCA0762E3AA3642EE52ECA01FE
:100F6000B901A20191010E94540D605DF6016293E6
:100F70006F01211531054105510589F7CF010E9407
:100F8000BB06080F191F672D7AA1862D9E2D0E9482
:100F9000910E9B01AC01C501B4010E947E0D4B0175
:100FA0005C01FA94F110C5CFC801A4960FB6F8946D
:100FB000DEBF0FBECDBFDF91CF911F910F91FF908C
:100FC000EF90DF90CF90BF90AF909F908F907F90E9
:100FD0006F905F904F903F902F900895CF93DF9345
:100FE00042E00E94CD06EC0180E892E00E94BB0640
:100FF0008C0F9D1FDF91CF9108950E94BA0F1F9211
:101000000F920FB60F9211242F933F938F939F93BC
:10101000AF93BF938091E7029091E802A091E9021B
:10102000B091EA023091E20223E0230F2D3720F441
:101030000196A11DB11D05C026E8230F0296A11D32
:10104000B11D2093E2028093E7029093E802A093FF
:10105000E902B093EA028091E3029091E402A09148
:10106000E502B091E6020196A11DB11D8093E30255
:101070009093E402A093E502B093E602BF91AF9192
:101080009F918F913F912F910F900FBE0F901F90C6
:1010900018951F920F920FB60F9211240BB60F9254
:1010A0002F933F934F935F936F937F938F939F9370
:1010B000AF93BF93EF93FF93E0910E02F0910F0275
:1010C0001995FF91EF91BF91AF919F918F917F9172
:1010D0006F915F914F913F912F910F900BBE0F90A9
:1010E0000FBE0F901F9018951F920F920FB60F9280
:1010F00011240BB60F922F933F934F935F936F93EF
:101100007F938F939F93AF93BF93EF93FF93E09160
:101110000C02F0910D021995FF91EF91BF91AF91E3
:101120009F918F917F916F915F914F913F912F91FF
:101130000F900BBE0F900FBE0F901F9018951F922F
:101140000F920FB60F9211240BB60F922F933F936D
:101150004F935F936F937F938F939F93AF93BF93BF
:10116000EF93FF93E0910202F09103021995FF9132
:10117000EF91BF91AF919F918F917F916F915F910F
:101180004F913F912F910F900BBE0F900FBE0F907C
:101190001F9018951F920F920FB60F9211240BB645
:1011A0000F922F933F934F935F936F937F938F9300
:1011B0009F93AF93BF93EF93FF93E0910002F09161
:1011C00001021995FF91EF91BF91AF919F918F917E
:1011D0007F916F915F914F913F912F910F900BBE37
:1011E0000F900FBE0F901F9018951F920F920FB681
:1011F0000F9211240BB60F922F933F934F935F934F
:101200006F937F938F939F93AF93BF93EF93FF93CE
:10121000E0910A02F0910B021995FF91EF91BF91B5
:10122000AF919F918F917F916F915F914F913F917E
:101230002F910F900BBE0F900FBE0F901F9018951F
:101240001F920F920FB60F9211240BB60F922F938D
:101250003F934F935F936F937F938F939F93AF933E
:10126000BF93EF93FF93E0910802F0910902199563
:10127000FF91EF91BF91AF919F918F917F916F916E
:101280005F914F913F912F910F900BBE0F900FBE2A
:101290000F901F9018951F920F920FB60F92112466
:1012A0000BB60F922F933F934F935F936F937F9360
:1012B0008F939F93AF93BF93EF93FF93E0910602B9
:1012C000F09107021995FF91EF91BF91AF919F9116
:1012D0008F917F916F915F914F913F912F910F90DF
:1012E0000BBE0F900FBE0F901F9018951F920F927C
:1012F0000FB60F9211240BB60F922F933F934F937B
:101300005F936F937F938F939F93AF93BF93EF936D
:10131000FF93E0910402F09105021995FF91EF917E
:10132000BF91AF919F918F917F916F915F914F91FD
:101330003F912F910F900BBE0F900FBE0F901F90FB
:1013400018951F920F920FB60F9211240BB60F92A1
:101350002F933F934F935F936F937F938F939F93BD
:10136000AF93BF93EF93FF938BEE92E00E949104B3
:10137000FF91EF91BF91AF919F918F917F916F916D
:101380005F914F913F912F910F900BBE0F900FBE29
:101390000F901F9018951F920F920FB60F92112465
:1013A0000BB60F922F938F939F93EF93FF93E09140
:1013B000FB02F091FC028081E0910103F0910203B5
:1013C00082FD12C09081809104038F5F8F73209102
:1013D0000503821751F0E0910403F0E0E551FD4F61
:1013E000958F8093040301C08081FF91EF919F91BD
:1013F0008F912F910F900BBE0F900FBE0F901F90EB
:1014000018950F931F93CF93DF93EBEEF2E01382C7
:10141000128288EE93E0A0E0B0E084839583A683F7
:10142000B78380E692E09183808385EC90E0958796
:10143000848784EC90E09787868780EC90E0918B9E
:10144000808B81EC90E0938B828B82EC90E0958B8B
:10145000848B86EC90E0978B868B118E128E138E88
:10146000148EE9EFF3E088E592E0918380831282A5
:1014700082E08383E4E3F2E001E214E824EA32EC60
:10148000048F158F268F378F41E254E864EA72E4A7
:1014900040A351A362A373A3E0E1F2E0048F158F90
:1014A000268F378F40A351A362A373A3CFE9D3E064
:1014B00040917002509171026091720270917302BA
:1014C000488359836A837B8320916E0230916F0237
:1014D0003D832C8346E656E666E470E44E835F83E4
:1014E0006887798749E95BEB66E97CE34A875B8734
:1014F0006C877D8742E350E060E070E04E875F8755
:10150000688B798B94E2E4E3F2E0A1EBB3E0019025
:101510000D929A95E1F794E2E0E1F2E0A5EDB3E0F7
:1015200001900D929A95E1F7E8E8F3E0D183C0834A
:1015300012828383D583C48383EA93E0978386836F
:10154000108681E08187128613861486158616869A
:101550001786108A118A128A81EB93E0948B838B11
:1015600085ED93E0968B858BDF91CF911F910F9145
:101570000895789484B5826084BD84B5816084BD0B
:1015800085B5826085BD85B5816085BD80916E0021
:10159000816080936E001092810080918100826052
:1015A000809381008091810081608093810080918F
:1015B00080008160809380008091B100846080937E
:1015C000B1008091B00081608093B0008091910063
:1015D000826080939100809191008160809391005E
:1015E000809190008160809390008091A100826042
:1015F0008093A1008091A10081608093A1008091DF
:10160000A00081608093A00080912101826080937E
:10161000210180912101816080932101809120012D
:1016200081608093200180917A00846080937A00A9
:1016300080917A00826080937A0080917A00816044
:1016400080937A0080917A00806880937A0010926B
:10165000C100E091FB02F091FC0282E08083E09106
:10166000F702F091F8021082E091F902F091FA028B
:1016700080E1808310920303E091FF02F091000368
:1016800086E08083E091FD02F091FE02808180611E
:101690008083E091FD02F091FE028081886080836A
:1016A000E091FD02F091FE02808180688083E091EC
:1016B000FD02F091FE0280818F7D808383E892E0BD
:1016C0000E94BB0680E892E00E94BB0689EF93E08F
:1016D0000E944C0688E893E00E944C06E0918E033D
:1016E000F0918F0362E080810E94A602E0918E0358
:1016F000F0918F0362E081810E94A6021092920312
:101700001092930310929403109295038CE696E046
:101710009093050280930402809169008C7F816020
:1017200080936900E89A60ED77E080E090E00E94A5
:10173000E10381EA92E00E94BB066091DE027091B3
:10174000DF028091E0029091E1020E94EE0785EBBA
:1017500092E00E94BB06E0919B03F0919C03608D98
:10176000718D828D938D42E00E94CD0689EC92E0CE
:101770000E94BB06E0919D03F0919E03608D718DE8
:10178000828D938D0E94EE078DEC92E00E94BB0645
:1017900080E892E00E94BB062FB7F8948091E702A0
:1017A0009091E802A091E902B091EA022FBFC090A7
:1017B0009603D0909703E0909803F0909903BC01B2
:1017C000CD016C197D098E099F09E0918C03F09180
:1017D0008D03C684D784E088F1886C157D058E055D
:1017E0009F0508F4ACC00E94910E20E030E04AE76B
:1017F00054E40E94F00D6B017C012FB7F8948091A6
:10180000E7029091E802A091E902B091EA022FBFAD
:101810008093960390939703A0939803B0939903B2
:10182000C0919B03D0919C03488C598C6A8C7B8C13
:10183000609192037091930380919403909195032A
:10184000A0908C03B0908D030E94930ED5011A9640
:101850002D913D914D915C911D970E94480FA301E0
:1018600092010E947E0D4B015C019B01AC01C30102
:10187000B2010E947F0D688F798F8A8F9B8FC091F4
:101880009D03D0919E03A7019601C501B4010E945A
:10189000F00D688F798F8A8F9B8F80919A038111C9
:1018A0000EC0B701A6018BE993E00E945B05E091B1
:1018B0009D03F0919E03648B758B868B978BB7018C
:1018C000A6018DE993E00E945B05E0918C03F09105
:1018D0008D0326813781408551850E94480F6B0119
:1018E0007C0120E030E0A9010E94EB0D87FF06C0DB
:1018F000F7FAF094F7F8F09480E001C081E00E94DC
:10190000850220E030E04FE753E4C701B6010E94B2
:10191000430F181614F48FEF10C020E030E0A90137
:10192000C701B6010E94EB0D87FF02C080E005C031
:10193000C701B6010E94620E862F0E94E202E0916A
:101940009B03F0919C03608D718D828D938D42E09D
:101950000E94CD068AED92E00E94BB06E0919D03B5
:10196000F0919E03608D718D828D938D42E00E9477
:10197000CD068AED92E00E94BB0680918B036091B8
:101980008A0370E0813019F480E090E007C071951F
:1019900061957109072E000C880B990B0E94930E1C
:1019A0000E94EE0762E370E080E090E00E94E103B5
:1019B0008BEE92E00E9459048936A9F480E090E011
:1019C000A0E8BFE38093DE029093DF02A093E002E1
:1019D000B093E102BC01CD010E94B20160E070E071
:1019E00080E89FE31AC08B3621F0833709F0D4CE0C
:1019F00037C080E090E0A0E8BFEB8093DE029093D8
:101A0000DF02A093E002B093E102BC01CD010E948D
:101A1000B20160E070E080E89FEB0E94EE07BCCE70
:101A20008B36E9F520E030E040E85FE36091DE02CC
:101A30007091DF028091E0029091E1020E947E0DA0
:101A40006B017C016093DE027093DF028093E00201
:101A50009093E1020E94B201C701B6010E94EE0715
:101A6000E0918803F091890360E080810E94560232
:101A700010928A038BEE92E00E945904893681F617
:101A800020E030E040E85FE36091DE027091DF0229
:101A90008091E0029091E1020E947F0DD1CF8337C7
:101AA000F9F60E94220578CEA1E21A2EAA1BBB1BD2
:101AB000FD010DC0AA1FBB1FEE1FFF1FA217B3071A
:101AC000E407F50720F0A21BB30BE40BF50B661F30
:101AD000771F881F991F1A9469F7609570958095F4
:101AE00090959B01AC01BD01CF010895EE0FFF1F42
:101AF000881F8BBF0790F691E02D19945058BB2793
:101B0000AA270E94960D0C94090F0E94FB0E38F034
:101B10000E94020F20F039F49F3F19F426F40C9430
:101B2000F80E0EF4E095E7FB0C94F20EE92F0E94FC
:101B30001A0F58F3BA17620773078407950720F046
:101B400079F4A6F50C943C0F0EF4E0950B2EBA2F09
:101B5000A02D0B01B90190010C01CA01A0011124B3
:101B6000FF27591B99F0593F50F4503E68F11A165F
:101B7000F040A22F232F342F4427585FF3CF4695F0
:101B800037952795A795F0405395C9F77EF41F1612
:101B9000BA0B620B730B840BBAF09150A1F0FF0FDC
:101BA000BB1F661F771F881FC2F70EC0BA0F621FC8
:101BB000731F841F48F4879577956795B795F795B8
:101BC0009E3F08F0B0CF9395880F08F09927EE0F4D
:101BD0009795879508950E94CE0E08F481E00895A8
:101BE0000E94040E0C94090F0E94020F58F00E94EC
:101BF000FB0E40F029F45F3F29F00C94F20E5111D6
:101C00000C943D0F0C94F80E0E941A0F68F3992360
:101C1000B1F3552391F3951B550BBB27AA276217E8
:101C20007307840738F09F5F5F4F220F331F441FF5
:101C3000AA1FA9F335D00E2E3AF0E0E832D0915029
:101C40005040E695001CCAF72BD0FE2F29D0660F16
:101C5000771F881FBB1F261737074807AB07B0E859
:101C600009F0BB0B802DBF01FF2793585F4F3AF05F
:101C70009E3F510578F00C94F20E0C943D0F5F3F9F
:101C8000E4F3983ED4F3869577956795B795F795E5
:101C90009F5FC9F7880F911D9695879597F90895CD
:101CA000E1E0660F771F881FBB1F62177307840769
:101CB000BA0720F0621B730B840BBA0BEE1F88F778
:101CC000E09508950E94220F88F09F5798F0B92F51
:101CD0009927B751B0F0E1F0660F771F881F991F61
:101CE0001AF0BA95C9F714C0B13091F00E943C0FB8
:101CF000B1E008950C943C0F672F782F8827B85FC8
:101D000039F0B93FCCF3869577956795B395D9F7B8
:101D10003EF490958095709561957F4F8F4F9F4FC2
:101D20000895E89409C097FB3EF4909580957095CE
:101D300061957F4F8F4F9F4F9923A9F0F92F96E917
:101D4000BB279395F695879577956795B795F1118C
:101D5000F8CFFAF4BB0F11F460FF1BC06F5F7F4F29
:101D60008F4F9F4F16C0882311F096E911C077233B
:101D700021F09EE8872F762F05C0662371F096E844
:101D8000862F70E060E02AF09A95660F771F881F13
:101D9000DAF7880F9695879597F90895990F0008B7
:101DA000550FAA0BE0E8FEEF16161706E807F9072D
:101DB000C0F012161306E407F50798F0621B730BC8
:101DC000840B950B39F40A2661F0232B242B252B49
:101DD00021F408950A2609F4A140A6958FEF811DEC
:101DE000811D089597F99F6780E870E060E008958D
:101DF0009FEF80EC089500240A9416161706180623
:101E00000906089500240A941216130614060506FE
:101E10000895092E0394000C11F4882352F0BB0F8F
:101E200040F4BF2B11F460FF04C06F5F7F4F8F4FF2
:101E30009F4F089557FD9058440F551F59F05F3F2D
:101E400071F04795880F97FB991F61F09F3F79F0DC
:101E500087950895121613061406551FF2CF46955E
:101E6000F1DF08C0161617061806991FF1CF8695E0
:101E70007105610508940895E894BB2766277727C4
:101E8000CB0197F908950E94CE0E08F48FEF0895C4
:101E90000E945B0F0C94090F0E94FB0E38F00E9409
:101EA000020F20F0952311F00C94F20E0C94F80E12
:101EB00011240C943D0F0E941A0F70F3959FC1F3EB
:101EC000950F50E0551F629FF001729FBB27F00DE8
:101ED000B11D639FAA27F00DB11DAA1F649F66273D
:101EE000B00DA11D661F829F2227B00DA11D621F8C
:101EF000739FB00DA11D621F839FA00D611D221F46
:101F0000749F3327A00D611D231F849F600D211D29
:101F1000822F762F6A2F11249F5750409AF0F1F0AC
:101F200088234AF0EE0FFF1FBB1F661F771F881F15
:101F300091505040A9F79E3F510580F00C94F20E4D
:101F40000C943D0F5F3FE4F3983ED4F3869577956C
:101F50006795B795F795E7959F5FC1F7FE2B880FBB
:101F6000911D9695879597F908950E94CE0E880B3E
:101F7000990B089581E090E0F8940C94BF0FF894C9
:021F8000FFCF91
:101F82001B041B041B041B041B041B041B041B0457
:101F92009A99993ECDCCCC3DCDCC4C3D0000000071
:101FA200000000000000000000000000000000002F
:101FB200000000009A99993E9A99993ECDCCCC3D69
:101FC200000000000000000000000000000000000F
:101FD20000000000000000000604070100000000ED
:101FE200B3041C044A0400057B0459046D04151350
:101FF200050302016E616E00696E66006F7666000F
:102002000D0A00656E636F646564206D6F746F7294
:1020120020636F6E74726F6C6C657220746573747A
:102022000073657420636F6E74726F6C20706F69D9
:102032006E743A200063757272656E7420706F73ED
:10204200202F2076656C3A2000202F2000626567E1
:0E205200696E206D6F74696F6E002C200000A7
:00000001FF
