:100000000C948D000C9411050C94E6040C94BB0424
:100010000C9490040C9465040C943A040C940F0412
:100020000C94E4030C94BE000C94BE000C94BE002F
:100030000C94BE000C94BE000C94BE000C94BE0048
:100040000C94BE000C94BE000C94BE000C94BE0038
:100050000C94BE000C94BE000C94BE000C949A0349
:100060000C94BE000C9466050C943C050C94BE00E8
:100070000C94BE000C94BE000C94BE000C94BE0008
:100080000C94BE000C94BE000C94BE000C94BE00F8
:100090000C94BE000C94BE000C94BE000C94BE00E8
:1000A0000C94BE000C94BE000C94BE000C94BE00D8
:1000B0000C94BE000C94BE000C94BE000C94BE00C8
:1000C0000C94BE000C94BE000C94BE000C94BE00B8
:1000D0000C94BE000C94BE000C94BE000C94BE00A8
:1000E0000C94BE000C949C050C9459010C94B30123
:1000F0000C9450030C9400020C947B010C945B0252
:100100000C941E030C944A010C946D010C941F0175
:100110000C9420010C9477029C0511241FBECFEF94
:10012000D1E2DEBFCDBF00E00CBF12E0A0E0B2E044
:10013000EAE1F5E100E00BBF02C007900D92A435A3
:10014000B107D9F723E0A4E5B2E001C01D92AA3CB3
:10015000B207E1F710E0CDE8D0E000E006C021975B
:100160000109802FFE010E949B07CC38D10780E057
:100170000807A9F70E9439060C948B0A0C9400001A
:100180003FB7F8948091590290915A02A0915B0276
:10019000B0915C0226B5A89B05C02F3F19F00196CF
:1001A000A11DB11D3FBFBA2FA92F982F8827820FFD
:1001B000911DA11DB11DBC01CD0142E0660F771F4D
:1001C000881F991F4A95D1F708958F929F92AF92F9
:1001D000BF92CF92DF92EF92FF926B017C010E945F
:1001E000C0004B015C01C114D104E104F104F1F041
:1001F0000E94C000DC01CB0188199909AA09BB093A
:10020000883E9340A105B10570F321E0C21AD108E0
:10021000E108F10888EE880E83E0981EA11CB11C4D
:10022000C114D104E104F10419F7DDCFFF90EF9080
:10023000DF90CF90BF90AF909F908F9008950895DA
:10024000CF92DF92EF92FF920F931F93CF93DF93A2
:100250006C017A018B01C0E0D0E0CE15DF0581F0A2
:10026000D8016D918D01D601ED91FC910190F08145
:10027000E02DC6011995892B11F02196EECF7E0154
:10028000C701DF91CF911F910F91FF90EF90DF9009
:10029000CF900895FC01538D448D252F30E0842F9D
:1002A00090E0821B930B541710F0CF96089501979E
:1002B0000895FC01918D828D981761F0828DDF0188
:1002C000A80FB11D5D968C91928D9F5F9F73928F49
:1002D00090E008958FEF9FEF0895FC01918D828D3E
:1002E000981731F0828DE80FF11D858D90E008950B
:1002F0008FEF9FEF0895FC01918D228D892F90E063
:10030000805C9F4F821B91098F73992708958DE51B
:1003100092E00E947B0121E0892B09F420E0822FEA
:100320000895FC01848DDF01A80FB11DA35ABF4FB2
:100330002C91848D90E001968F739927848FA689E4
:10034000B7892C93A089B1898C91837080648C9338
:10035000938D848D981306C00288F389E02D8081E7
:100360008F7D80830895EF92FF920F931F93CF9319
:10037000DF93EC0181E0888F9B8D8C8D981305C0F5
:10038000E889F989808185FD26C0F62E0B8D10E065
:100390000F5F1F4F0F731127E02E8C8DE8120CC0DA
:1003A0000FB607FCFACFE889F989808185FFF5CF80
:1003B000CE010E949101F1CF8B8DFE01E80FF11D5E
:1003C000E35AFF4FF0829FB7F8940B8FEA89FB89BD
:1003D000808180620AC09FB7F894EE89FF896083AC
:1003E000E889F98980818370806480839FBF81E080
:1003F00090E0DF91CF911F910F91FF90EF900895C2
:10040000CF93DF93EC01888D8823C9F0EA89FB89BB
:10041000808185FD05C0A889B9898C9186FD0FC0B2
:100420000FB607FCF5CF808185FFF2CFA889B98987
:100430008C9185FFEDCFCE010E949101E7CFDF9136
:10044000CF91089580E090E0892B21F00E948701F0
:10045000811125C080E090E0892B41F080E090E0A0
:10046000892B21F00E94000081111CC080E090E0E7
:10047000892B41F080E090E0892B21F00E94000060
:10048000811113C080E090E0892BA1F080E090E022
:10049000892B81F00E94000081110AC008950E94FA
:1004A0000000D8CF0E940000E1CF0E940000EACFF8
:1004B0000C9400000895CF93DF93EC01EC81FD8153
:1004C00084819581DC01ED91FC910280F381E02D26
:1004D0001995EC81FD8184819581DC01ED91FC9180
:1004E0000190F081E02D6AE0DF91CF911994EF92B5
:1004F000FF920F931F93CF93DF93EC018C010A5768
:100500001F4FEC81FD8184819581DC01ED91FC918F
:100510000084F185E02D1995009729F1F801E0801C
:10052000F180C701019691838083EC81FD818481F4
:100530009581DC01ED91FC910284F385E02D199504
:10054000FE01EE0DFF1D8683D801ED91FC91119700
:10055000EC0FFD1F85818A30A1F68E818A831D9262
:100560001C9281E090E0DF91CF911F910F91FF905D
:10057000EF900895089580E090E008950E94A30709
:100580006115710579F0FB0101900020E9F73197C1
:10059000AF01461B570BDC01ED91FC910280F3810A
:1005A000E02D199480E090E008958F929F92AF9291
:1005B000BF92EF92FF920F931F93CF93DF93CDB72C
:1005C000DEB7A1970FB6F894DEBF0FBECDBF7C019A
:1005D000FA01CB0119A2223008F42AE08E010F5D46
:1005E0001F4F822E912CA12CB12CBF01A50194018B
:1005F0000E947907F901CA01015011096A3014F407
:10060000605D01C0695CD8016C93232B242B252BE2
:1006100061F7B801C7010E94C002A1960FB6F89415
:10062000DEBF0FBECDBFDF91CF911F910F91FF9025
:10063000EF90BF90AF909F908F900895DC0114963B
:10064000ED91FC911597848195810C94C002CF9314
:10065000DF93CDB7DEB7C058D1090FB6F894DEBF2F
:100660000FBECDBFAE0146575F4FC857DF4F688101
:100670007981C858D040CE0101960E94A807BE01DA
:100680006F5F7F4F86E393E00E941E03C058DF4FE9
:100690000FB6F894DEBF0FBECDBFDF91CF910895A6
:1006A0008F929F92AF92BF92CF92DF92EF92FF9282
:1006B0000F931F93CF93DF937C01EB016C0182E0DA
:1006C000C80ED11C4701E5E08E0E911C00E010E041
:1006D000F60141916F0150E060E070E02AE0CE0148
:1006E0000E94D5025C01E881F9810190F081E02D42
:1006F0006EE2CE0119958A0D9B1D080F191F8C14EF
:100700009D0431F7F701458150E060E070E02AE098
:10071000CE010E94D502800F911FDF91CF911F91D2
:100720000F91FF90EF90DF90CF90BF90AF909F9090
:100730008F9008951F920F920FB60F9211242F934E
:100740003F938F939F93AF93BF9380915502909166
:100750005602A0915702B09158023091540223E002
:10076000230F2D3720F40196A11DB11D05C026E8E9
:10077000230F0296A11DB11D2093540280935502B0
:1007800090935602A0935702B09358028091590259
:1007900090915A02A0915B02B0915C020196A11D5A
:1007A000B11D8093590290935A02A0935B02B093BB
:1007B0005C02BF91AF919F918F913F912F910F90CC
:1007C0000FBE0F901F9018951F920F920FB60F92A9
:1007D00011240BB60F922F933F934F935F936F9318
:1007E0007F938F939F93AF93BF93EF93FF93E0918A
:1007F0000E02F0910F021995FF91EF91BF91AF9109
:100800009F918F917F916F915F914F913F912F9128
:100810000F900BBE0F900FBE0F901F9018951F9258
:100820000F920FB60F9211240BB60F922F933F9396
:100830004F935F936F937F938F939F93AF93BF93E8
:10084000EF93FF93E0910C02F0910D021995FF9147
:10085000EF91BF91AF919F918F917F916F915F9138
:100860004F913F912F910F900BBE0F900FBE0F90A5
:100870001F9018951F920F920FB60F9211240BB66E
:100880000F922F933F934F935F936F937F938F9329
:100890009F93AF93BF93EF93FF93E0910202F09188
:1008A00003021995FF91EF91BF91AF919F918F91A5
:1008B0007F916F915F914F913F912F910F900BBE60
:1008C0000F900FBE0F901F9018951F920F920FB6AA
:1008D0000F9211240BB60F922F933F934F935F9378
:1008E0006F937F938F939F93AF93BF93EF93FF93F8
:1008F000E0910002F09101021995FF91EF91BF91F3
:10090000AF919F918F917F916F915F914F913F91A7
:100910002F910F900BBE0F900FBE0F901F90189548
:100920001F920F920FB60F9211240BB60F922F93B6
:100930003F934F935F936F937F938F939F93AF9367
:10094000BF93EF93FF93E0910A02F0910B02199588
:10095000FF91EF91BF91AF919F918F917F916F9197
:100960005F914F913F912F910F900BBE0F900FBE53
:100970000F901F9018951F920F920FB60F9211248F
:100980000BB60F922F933F934F935F936F937F9389
:100990008F939F93AF93BF93EF93FF93E0910802E0
:1009A000F09109021995FF91EF91BF91AF919F913D
:1009B0008F917F916F915F914F913F912F910F9008
:1009C0000BBE0F900FBE0F901F9018951F920F92A5
:1009D0000FB60F9211240BB60F922F933F934F93A4
:1009E0005F936F937F938F939F93AF93BF93EF9397
:1009F000FF93E0910602F09107021995FF91EF91A4
:100A0000BF91AF919F918F917F916F915F914F9126
:100A10003F912F910F900BBE0F900FBE0F901F9024
:100A200018951F920F920FB60F9211240BB60F92CA
:100A30002F933F934F935F936F937F938F939F93E6
:100A4000AF93BF93EF93FF93E0910402F0910502FF
:100A50001995FF91EF91BF91AF919F918F917F91E8
:100A60006F915F914F913F912F910F900BBE0F901F
:100A70000FBE0F901F9018951F920F920FB60F92F6
:100A800011240BB60F922F933F934F935F936F9365
:100A90007F938F939F93AF93BF93EF93FF938DE5D6
:100AA00092E00E949101FF91EF91BF91AF919F91D0
:100AB0008F917F916F915F914F913F912F910F9007
:100AC0000BBE0F900FBE0F901F9018951F920F92A4
:100AD0000FB60F9211240BB60F922F938F939F9303
:100AE000EF93FF93E0916D02F0916E028081E091AF
:100AF0007302F091740282FD12C09081809176029F
:100B00008F5F8F7320917702821751F0E091760208
:100B1000F0E0E35AFD4F958F8093760201C080810B
:100B2000FF91EF919F918F912F910F900BBE0F909E
:100B30000FBE0F901F901895EDE5F2E01382128220
:100B400088EE93E0A0E0B0E084839583A683B7832A
:100B50008AE192E09183808385EC90E09587848799
:100B600084EC90E09787868780EC90E0918B808B77
:100B700081EC90E0938B828B82EC90E0958B848B60
:100B800086EC90E0978B868B118E128E138E148ECE
:100B9000EAEFF2E086E392E091838083128213828F
:100BA00014821582E0E0F3E0918380831282138245
:100BB00014821582E6E0F3E091838083128213822F
:100BC00014821582ECE0F3E0918380831282138219
:100BD00014821582E2E1F3E0918380831282138212
:100BE00014821582E8E1F3E09183808312821382FC
:100BF00014821582EEE1F3E09183808312821382E6
:100C000014821582EAE2F3E09183808312821382D8
:100C100014821582E4E2F3E09183808312821382CE
:100C200014821582E0E3F3E09183808312821382C1
:100C300014821582EEEBF3E091838083128213829B
:100C400014821582E6E3F3E02CE232E03183208364
:100C500020E132E0358324831092BD031092BC035F
:100C6000E4ECF3E091838083128213821482158274
:100C70000895CF93DF93CDB7DEB7C058D1090FB633
:100C8000F894DEBF0FBECDBF789484B5826084BD7A
:100C900084B5816084BD85B5826085BD85B5816080
:100CA00085BD80916E00816080936E0010928100FE
:100CB00080918100826080938100809181008160B9
:100CC000809381008091800081608093800080917A
:100CD000B10084608093B1008091B0008160809306
:100CE000B00080919100826080939100809191008A
:100CF000816080939100809190008160809390004A
:100D00008091A10082608093A1008091A100816008
:100D10008093A1008091A00081608093A0008091C9
:100D20002101826080932101809121018160809363
:100D300021018091200181608093200180917A00BF
:100D4000846080937A0080917A00826080937A0038
:100D500080917A00816080937A0080917A00806827
:100D600080937A001092C100E0913A03F0913B0326
:100D7000C080D180E280F3800481158160E079E059
:100D80008DE390E0A70196010E947907DA01C9017D
:100D90000197A109B109B695A795979587959C01EB
:100DA000D8015096ED91FC91519782E08083C11457
:100DB000B1EEDB06E104F10421F02115E0E13E078C
:100DC000C0F0D8015096ED91FC915197108260E8E7
:100DD00074E88EE190E0A70196010E947907DA019C
:100DE000C9010197A109B109B695A795979587956E
:100DF0009C01D8011C96ED91FC911D9730831E96A5
:100E0000ED91FC911F97208358961C925897549609
:100E1000ED91FC91559786E080835296ED91FC917F
:100E200053978081806180835296ED91FC91539716
:100E30008081886080835296ED91FC9153978081E8
:100E4000806880835296ED91FC91539780818F7DCD
:100E5000808388E392E09F938F9386E393E09F9350
:100E60008F930E94270364E670E080E090E00E9488
:100E7000E5000F900F900F900F9088E6F82E99E6FE
:100E8000E92E0FE412E0DD24D39480913903813000
:100E900069F4F982EA8242E050E0BE016F5F7F4F61
:100EA00086E393E00E945B021092390386E393E0AD
:100EB0000E947702892BA1F086E393E0209138030A
:100EC0001F922F931F930F939F938F930E9427033B
:100ED000D09239030F900F900F900F900F900F90BA
:100EE00064E670E080E090E00E94E5000E9422024B
:100EF000CCCFA1E21A2EAA1BBB1BFD010DC0AA1F5D
:100F0000BB1FEE1FFF1FA217B307E407F50720F072
:100F1000A21BB30BE40BF50B661F771F881F991FED
:100F20001A9469F760957095809590959B01AC0136
:100F3000BD01CF010895EE0FFF1F881F8BBF0790E3
:100F4000F691E02D199481E090E0F8940C948B0ACE
:100F50000F931F93CF93DF93CDB7DEB72E970FB6C6
:100F6000F894DEBF0FBECDBF8C0186E08C831A8360
:100F700009838FEF9FE79E838D83CE0101960E94A8
:100F8000D107EF81F885E00FF11F10822E960FB682
:100F9000F894DEBF0FBECDBFDF91CF911F910F91AF
:100FA00008952F923F924F925F926F927F928F920D
:100FB0009F92AF92BF92CF92DF92EF92FF920F93E8
:100FC0001F93CF93DF93CDB7DEB72B970FB6F8946F
:100FD000DEBF0FBECDBF6C017B018A01FC01178211
:100FE0001682838181FFCCC1CE0101963C01F601BE
:100FF0009381F70193FD859193FF81917F01882370
:1010000009F4BAC1853239F493FD859193FF81913A
:101010007F01853229F4B60190E00E94F109E7CF03
:10102000912C212C312CFFE1F315D8F08B3279F083
:1010300038F4803279F08332A1F4232D20611DC071
:101040008D3261F0803369F4232D216016C0832D29
:101050008260382EE32DE4603E2E2AC0F32DF86026
:101060001DC037FC2DC020ED280F2A3040F08E32F5
:10107000B9F436FC81C1232D2064322E19C036FE0E
:1010800006C08AE0989E200D1124922E11C0EAE03D
:101090002E9E200D1124222EF32DF0623F2E08C02B
:1010A0008C3621F4832D8068382E02C0883641F4B6
:1010B000F70193FD859193FF81917F018111B3CF5A
:1010C000982F9F7D9554933028F40C5F1F4F9FE31A
:1010D00099830DC0833631F0833771F0833509F081
:1010E00059C021C0F801808189830E5F1F4F882479
:1010F0008394912C530113C02801F2E04F0E511C30
:10110000F801A080B18036FE03C0692D70E002C0F6
:101110006FEF7FEFC5010E94E6094C018201F32DBC
:10112000FF773F2E16C0280122E0420E511CF80125
:10113000A080B18036FE03C0692D70E002C06FEF61
:101140007FEFC5010E94DB094C01F32DF0683F2EB3
:10115000820133FC1BC0822D90E088169906B0F402
:10116000B60180E290E00E94F1092A94F4CFF501E3
:1011700037FC859137FE81915F01B60190E00E94B6
:10118000F10921102A9421E0821A91088114910416
:1011900071F7E8C0843611F0893641F5F80137FE61
:1011A00007C060817181828193810C5F1F4F08C0ED
:1011B00060817181072E000C880B990B0E5F1F4F09
:1011C000F32DFF763F2E97FF09C09095809570957F
:1011D00061957F4F8F4F9F4FF0683F2E2AE030E0A0
:1011E000A3010E942D0A882E861845C0853731F448
:1011F000232D2F7EB22E2AE030E025C0932D997F3B
:10120000B92E8F36C1F018F4883579F0B5C0803723
:1012100019F0883721F0B0C0E92FE061BE2EB4FE8E
:101220000DC0FB2DF460BF2E09C034FE0AC0292F6B
:101230002660B22E06C028E030E005C020E130E094
:1012400002C020E132E0F801B7FE07C06081718181
:10125000828193810C5F1F4F06C06081718180E0A5
:1012600090E00E5F1F4FA3010E942D0A882E861862
:10127000FB2DFF773F2E36FE0DC0232D2E7FA22E95
:10128000891458F434FE0BC032FC09C0832D8E7EC5
:10129000A82E05C0B82CA32C03C0B82C01C0B92CB3
:1012A000A4FE0FC0FE01E80DF11D8081803321F402
:1012B0009A2D997EA92E09C0A2FE06C0B394B394BC
:1012C00004C08A2D867809F0B394A3FC11C0A0FE57
:1012D00006C0B21488F4280C922C9B180EC0B214CD
:1012E00060F4B60180E290E00E94F109B394F7CF78
:1012F000B21418F42B1802C0982C212CA4FE10C094
:10130000B60180E390E00E94F109A2FE17C0A1FCA3
:1013100003C088E790E002C088E590E0B6010CC009
:101320008A2D867859F0A1FE02C08BE201C080E2CE
:10133000A7FC8DE2B60190E00E94F109891438F40F
:10134000B60180E390E00E94F1099A94F7CF8A9465
:10135000F301E80DF11D8081B60190E00E94F109D2
:101360008110F5CF222009F442CEB60180E290E050
:101370000E94F1092A94F6CFF6018681978102C076
:101380008FEF9FEF2B960FB6F894DEBF0FBECDBF49
:10139000DF91CF911F910F91FF90EF90DF90CF9051
:1013A000BF90AF909F908F907F906F905F904F9085
:1013B0003F902F900895FC010590615070400110FE
:1013C000D8F7809590958E0F9F1F0895FC0161506E
:1013D000704001900110D8F7809590958E0F9F1F57
:1013E00008950F931F93CF93DF93FB01238121FD7A
:1013F00003C08FEF9FEF2CC022FF16C0468157819C
:10140000248135814217530744F4A081B1819D01A5
:101410002F5F3F4F318320838C93268137812F5F4D
:101420003F4F3783268314C08B01EC01FB010084FE
:10143000F185E02D1995892BE1F6D80116968D914D
:101440009C911797019617969C938E931697CE01B1
:10145000DF91CF911F910F910895FA01AA272830AB
:1014600051F1203181F1E8946F936E7F6E5F7F4F71
:101470008F4F9F4FAF4FB1E03ED0B4E03CD0670FED
:10148000781F891F9A1FA11D680F791F8A1F911D40
:10149000A11D6A0F711D811D911DA11D20D009F490
:1014A00068943F912AE0269F11243019305D3193D2
:1014B000DEF6CF010895462F4770405D4193B3E0BB
:1014C0000FD0C9F7F6CF462F4F70405D4A3318F062
:1014D000495D31FD4052419302D0A9F7EACFB4E013
:1014E000A6959795879577956795BA95C9F70097CB
:1014F0006105710508959B01AC010A2E069457956C
:10150000479537952795BA95C9F7620F731F841FC2
:0A151000951FA01D0895F894FFCF69
:10151A001F011F011F011F011F011F011F011F01C1
:10152A0000C201005D0200000000B30120014A016F
:10153A0000027B0159016D01000000001E037702C1
:10154A005B0200000000500353657269616C2069F8
:10155A006E7465726661636520746573740A00252A
:04156A00640A00000F
:00000001FF
